{
	"modifiers.sol": {
		"Modifiers": {
			"abi": [
				{
					"inputs": [],
					"stateMutability": "nonpayable",
					"type": "constructor"
				},
				{
					"inputs": [
						{
							"internalType": "address",
							"name": "newOwner",
							"type": "address"
						}
					],
					"name": "ChangeOwner",
					"outputs": [],
					"stateMutability": "nonpayable",
					"type": "function"
				},
				{
					"inputs": [],
					"name": "locked",
					"outputs": [
						{
							"internalType": "bool",
							"name": "",
							"type": "bool"
						}
					],
					"stateMutability": "view",
					"type": "function"
				},
				{
					"inputs": [],
					"name": "owner",
					"outputs": [
						{
							"internalType": "address",
							"name": "",
							"type": "address"
						}
					],
					"stateMutability": "view",
					"type": "function"
				},
				{
					"inputs": [],
					"name": "x",
					"outputs": [
						{
							"internalType": "uint256",
							"name": "",
							"type": "uint256"
						}
					],
					"stateMutability": "view",
					"type": "function"
				}
			],
			"devdoc": {
				"kind": "dev",
				"methods": {},
				"version": 1
			},
			"evm": {
				"assembly": "    /* \"modifiers.sol\":257:876  contract Modifiers {... */\n  mstore(0x40, 0x80)\n    /* \"modifiers.sol\":329:331  10 */\n  0x0a\n    /* \"modifiers.sol\":310:331  uint256 public x = 10 */\n  0x01\n  sstore\n    /* \"modifiers.sol\":365:416  constructor() {... */\n  callvalue\n  dup1\n  iszero\n  tag_1\n  jumpi\n  0x00\n  dup1\n  revert\ntag_1:\n  pop\n    /* \"modifiers.sol\":398:408  msg.sender */\n  caller\n    /* \"modifiers.sol\":390:395  owner */\n  0x00\n  dup1\n    /* \"modifiers.sol\":390:408  owner = msg.sender */\n  0x0100\n  exp\n  dup2\n  sload\n  dup2\n  0xffffffffffffffffffffffffffffffffffffffff\n  mul\n  not\n  and\n  swap1\n  dup4\n  0xffffffffffffffffffffffffffffffffffffffff\n  and\n  mul\n  or\n  swap1\n  sstore\n  pop\n    /* \"modifiers.sol\":257:876  contract Modifiers {... */\n  dataSize(sub_0)\n  dup1\n  dataOffset(sub_0)\n  0x00\n  codecopy\n  0x00\n  return\nstop\n\nsub_0: assembly {\n        /* \"modifiers.sol\":257:876  contract Modifiers {... */\n      mstore(0x40, 0x80)\n      callvalue\n      dup1\n      iszero\n      tag_1\n      jumpi\n      0x00\n      dup1\n      revert\n    tag_1:\n      pop\n      jumpi(tag_2, lt(calldatasize, 0x04))\n      shr(0xe0, calldataload(0x00))\n      dup1\n      0x0c55699c\n      eq\n      tag_3\n      jumpi\n      dup1\n      0x8da5cb5b\n      eq\n      tag_4\n      jumpi\n      dup1\n      0xcf309012\n      eq\n      tag_5\n      jumpi\n      dup1\n      0xf2853292\n      eq\n      tag_6\n      jumpi\n    tag_2:\n      0x00\n      dup1\n      revert\n        /* \"modifiers.sol\":310:331  uint256 public x = 10 */\n    tag_3:\n      tag_7\n      tag_8\n      jump\t// in\n    tag_7:\n      mload(0x40)\n      tag_9\n      swap2\n      swap1\n      tag_10\n      jump\t// in\n    tag_9:\n      mload(0x40)\n      dup1\n      swap2\n      sub\n      swap1\n      return\n        /* \"modifiers.sol\":283:303  address public owner */\n    tag_4:\n      tag_11\n      tag_12\n      jump\t// in\n    tag_11:\n      mload(0x40)\n      tag_13\n      swap2\n      swap1\n      tag_14\n      jump\t// in\n    tag_13:\n      mload(0x40)\n      dup1\n      swap2\n      sub\n      swap1\n      return\n        /* \"modifiers.sol\":338:356  bool public locked */\n    tag_5:\n      tag_15\n      tag_16\n      jump\t// in\n    tag_15:\n      mload(0x40)\n      tag_17\n      swap2\n      swap1\n      tag_18\n      jump\t// in\n    tag_17:\n      mload(0x40)\n      dup1\n      swap2\n      sub\n      swap1\n      return\n        /* \"modifiers.sol\":707:873  function ChangeOwner(address newOwner) public OnlyOwner validateData(newOwner) {           // Calling the two modifiers as functions... */\n    tag_6:\n      tag_19\n      0x04\n      dup1\n      calldatasize\n      sub\n      dup2\n      add\n      swap1\n      tag_20\n      swap2\n      swap1\n      tag_21\n      jump\t// in\n    tag_20:\n      tag_22\n      jump\t// in\n    tag_19:\n      stop\n        /* \"modifiers.sol\":310:331  uint256 public x = 10 */\n    tag_8:\n      sload(0x01)\n      dup2\n      jump\t// out\n        /* \"modifiers.sol\":283:303  address public owner */\n    tag_12:\n      0x00\n      dup1\n      sload\n      swap1\n      0x0100\n      exp\n      swap1\n      div\n      0xffffffffffffffffffffffffffffffffffffffff\n      and\n      dup2\n      jump\t// out\n        /* \"modifiers.sol\":338:356  bool public locked */\n    tag_16:\n      0x02\n      0x00\n      swap1\n      sload\n      swap1\n      0x0100\n      exp\n      swap1\n      div\n      0xff\n      and\n      dup2\n      jump\t// out\n        /* \"modifiers.sol\":707:873  function ChangeOwner(address newOwner) public OnlyOwner validateData(newOwner) {           // Calling the two modifiers as functions... */\n    tag_22:\n        /* \"modifiers.sol\":529:534  owner */\n      0x00\n      dup1\n      sload\n      swap1\n      0x0100\n      exp\n      swap1\n      div\n      0xffffffffffffffffffffffffffffffffffffffff\n      and\n        /* \"modifiers.sol\":515:534  msg.sender == owner */\n      0xffffffffffffffffffffffffffffffffffffffff\n      and\n        /* \"modifiers.sol\":515:525  msg.sender */\n      caller\n        /* \"modifiers.sol\":515:534  msg.sender == owner */\n      0xffffffffffffffffffffffffffffffffffffffff\n      and\n      eq\n        /* \"modifiers.sol\":507:548  require(msg.sender == owner, \"Not Owner\") */\n      tag_24\n      jumpi\n      mload(0x40)\n      0x08c379a000000000000000000000000000000000000000000000000000000000\n      dup2\n      mstore\n      0x04\n      add\n      tag_25\n      swap1\n      tag_26\n      jump\t// in\n    tag_25:\n      mload(0x40)\n      dup1\n      swap2\n      sub\n      swap1\n      revert\n    tag_24:\n        /* \"modifiers.sol\":776:784  newOwner */\n      dup1\n        /* \"modifiers.sol\":655:656  0 */\n      0x00\n        /* \"modifiers.sol\":635:657  _address != address(0) */\n      0xffffffffffffffffffffffffffffffffffffffff\n      and\n        /* \"modifiers.sol\":635:643  _address */\n      dup2\n        /* \"modifiers.sol\":635:657  _address != address(0) */\n      0xffffffffffffffffffffffffffffffffffffffff\n      and\n      sub\n        /* \"modifiers.sol\":627:679  require(_address != address(0), \"Not valid address\") */\n      tag_28\n      jumpi\n      mload(0x40)\n      0x08c379a000000000000000000000000000000000000000000000000000000000\n      dup2\n      mstore\n      0x04\n      add\n      tag_29\n      swap1\n      tag_30\n      jump\t// in\n    tag_29:\n      mload(0x40)\n      dup1\n      swap2\n      sub\n      swap1\n      revert\n    tag_28:\n        /* \"modifiers.sol\":857:865  newOwner */\n      dup2\n        /* \"modifiers.sol\":849:854  owner */\n      0x00\n      dup1\n        /* \"modifiers.sol\":849:865  owner = newOwner */\n      0x0100\n      exp\n      dup2\n      sload\n      dup2\n      0xffffffffffffffffffffffffffffffffffffffff\n      mul\n      not\n      and\n      swap1\n      dup4\n      0xffffffffffffffffffffffffffffffffffffffff\n      and\n      mul\n      or\n      swap1\n      sstore\n      pop\n        /* \"modifiers.sol\":559:560  _ */\n      pop\n        /* \"modifiers.sol\":707:873  function ChangeOwner(address newOwner) public OnlyOwner validateData(newOwner) {           // Calling the two modifiers as functions... */\n      pop\n      jump\t// out\n        /* \"#utility.yul\":7:84   */\n    tag_32:\n        /* \"#utility.yul\":44:51   */\n      0x00\n        /* \"#utility.yul\":73:78   */\n      dup2\n        /* \"#utility.yul\":62:78   */\n      swap1\n      pop\n        /* \"#utility.yul\":7:84   */\n      swap2\n      swap1\n      pop\n      jump\t// out\n        /* \"#utility.yul\":90:208   */\n    tag_33:\n        /* \"#utility.yul\":177:201   */\n      tag_52\n        /* \"#utility.yul\":195:200   */\n      dup2\n        /* \"#utility.yul\":177:201   */\n      tag_32\n      jump\t// in\n    tag_52:\n        /* \"#utility.yul\":172:175   */\n      dup3\n        /* \"#utility.yul\":165:202   */\n      mstore\n        /* \"#utility.yul\":90:208   */\n      pop\n      pop\n      jump\t// out\n        /* \"#utility.yul\":214:436   */\n    tag_10:\n        /* \"#utility.yul\":307:311   */\n      0x00\n        /* \"#utility.yul\":345:347   */\n      0x20\n        /* \"#utility.yul\":334:343   */\n      dup3\n        /* \"#utility.yul\":330:348   */\n      add\n        /* \"#utility.yul\":322:348   */\n      swap1\n      pop\n        /* \"#utility.yul\":358:429   */\n      tag_54\n        /* \"#utility.yul\":426:427   */\n      0x00\n        /* \"#utility.yul\":415:424   */\n      dup4\n        /* \"#utility.yul\":411:428   */\n      add\n        /* \"#utility.yul\":402:408   */\n      dup5\n        /* \"#utility.yul\":358:429   */\n      tag_33\n      jump\t// in\n    tag_54:\n        /* \"#utility.yul\":214:436   */\n      swap3\n      swap2\n      pop\n      pop\n      jump\t// out\n        /* \"#utility.yul\":442:568   */\n    tag_34:\n        /* \"#utility.yul\":479:486   */\n      0x00\n        /* \"#utility.yul\":519:561   */\n      0xffffffffffffffffffffffffffffffffffffffff\n        /* \"#utility.yul\":512:517   */\n      dup3\n        /* \"#utility.yul\":508:562   */\n      and\n        /* \"#utility.yul\":497:562   */\n      swap1\n      pop\n        /* \"#utility.yul\":442:568   */\n      swap2\n      swap1\n      pop\n      jump\t// out\n        /* \"#utility.yul\":574:670   */\n    tag_35:\n        /* \"#utility.yul\":611:618   */\n      0x00\n        /* \"#utility.yul\":640:664   */\n      tag_57\n        /* \"#utility.yul\":658:663   */\n      dup3\n        /* \"#utility.yul\":640:664   */\n      tag_34\n      jump\t// in\n    tag_57:\n        /* \"#utility.yul\":629:664   */\n      swap1\n      pop\n        /* \"#utility.yul\":574:670   */\n      swap2\n      swap1\n      pop\n      jump\t// out\n        /* \"#utility.yul\":676:794   */\n    tag_36:\n        /* \"#utility.yul\":763:787   */\n      tag_59\n        /* \"#utility.yul\":781:786   */\n      dup2\n        /* \"#utility.yul\":763:787   */\n      tag_35\n      jump\t// in\n    tag_59:\n        /* \"#utility.yul\":758:761   */\n      dup3\n        /* \"#utility.yul\":751:788   */\n      mstore\n        /* \"#utility.yul\":676:794   */\n      pop\n      pop\n      jump\t// out\n        /* \"#utility.yul\":800:1022   */\n    tag_14:\n        /* \"#utility.yul\":893:897   */\n      0x00\n        /* \"#utility.yul\":931:933   */\n      0x20\n        /* \"#utility.yul\":920:929   */\n      dup3\n        /* \"#utility.yul\":916:934   */\n      add\n        /* \"#utility.yul\":908:934   */\n      swap1\n      pop\n        /* \"#utility.yul\":944:1015   */\n      tag_61\n        /* \"#utility.yul\":1012:1013   */\n      0x00\n        /* \"#utility.yul\":1001:1010   */\n      dup4\n        /* \"#utility.yul\":997:1014   */\n      add\n        /* \"#utility.yul\":988:994   */\n      dup5\n        /* \"#utility.yul\":944:1015   */\n      tag_36\n      jump\t// in\n    tag_61:\n        /* \"#utility.yul\":800:1022   */\n      swap3\n      swap2\n      pop\n      pop\n      jump\t// out\n        /* \"#utility.yul\":1028:1118   */\n    tag_37:\n        /* \"#utility.yul\":1062:1069   */\n      0x00\n        /* \"#utility.yul\":1105:1110   */\n      dup2\n        /* \"#utility.yul\":1098:1111   */\n      iszero\n        /* \"#utility.yul\":1091:1112   */\n      iszero\n        /* \"#utility.yul\":1080:1112   */\n      swap1\n      pop\n        /* \"#utility.yul\":1028:1118   */\n      swap2\n      swap1\n      pop\n      jump\t// out\n        /* \"#utility.yul\":1124:1233   */\n    tag_38:\n        /* \"#utility.yul\":1205:1226   */\n      tag_64\n        /* \"#utility.yul\":1220:1225   */\n      dup2\n        /* \"#utility.yul\":1205:1226   */\n      tag_37\n      jump\t// in\n    tag_64:\n        /* \"#utility.yul\":1200:1203   */\n      dup3\n        /* \"#utility.yul\":1193:1227   */\n      mstore\n        /* \"#utility.yul\":1124:1233   */\n      pop\n      pop\n      jump\t// out\n        /* \"#utility.yul\":1239:1449   */\n    tag_18:\n        /* \"#utility.yul\":1326:1330   */\n      0x00\n        /* \"#utility.yul\":1364:1366   */\n      0x20\n        /* \"#utility.yul\":1353:1362   */\n      dup3\n        /* \"#utility.yul\":1349:1367   */\n      add\n        /* \"#utility.yul\":1341:1367   */\n      swap1\n      pop\n        /* \"#utility.yul\":1377:1442   */\n      tag_66\n        /* \"#utility.yul\":1439:1440   */\n      0x00\n        /* \"#utility.yul\":1428:1437   */\n      dup4\n        /* \"#utility.yul\":1424:1441   */\n      add\n        /* \"#utility.yul\":1415:1421   */\n      dup5\n        /* \"#utility.yul\":1377:1442   */\n      tag_38\n      jump\t// in\n    tag_66:\n        /* \"#utility.yul\":1239:1449   */\n      swap3\n      swap2\n      pop\n      pop\n      jump\t// out\n        /* \"#utility.yul\":1536:1653   */\n    tag_40:\n        /* \"#utility.yul\":1645:1646   */\n      0x00\n        /* \"#utility.yul\":1642:1643   */\n      dup1\n        /* \"#utility.yul\":1635:1647   */\n      revert\n        /* \"#utility.yul\":1782:1904   */\n    tag_42:\n        /* \"#utility.yul\":1855:1879   */\n      tag_71\n        /* \"#utility.yul\":1873:1878   */\n      dup2\n        /* \"#utility.yul\":1855:1879   */\n      tag_35\n      jump\t// in\n    tag_71:\n        /* \"#utility.yul\":1848:1853   */\n      dup2\n        /* \"#utility.yul\":1845:1880   */\n      eq\n        /* \"#utility.yul\":1835:1898   */\n      tag_72\n      jumpi\n        /* \"#utility.yul\":1894:1895   */\n      0x00\n        /* \"#utility.yul\":1891:1892   */\n      dup1\n        /* \"#utility.yul\":1884:1896   */\n      revert\n        /* \"#utility.yul\":1835:1898   */\n    tag_72:\n        /* \"#utility.yul\":1782:1904   */\n      pop\n      jump\t// out\n        /* \"#utility.yul\":1910:2049   */\n    tag_43:\n        /* \"#utility.yul\":1956:1961   */\n      0x00\n        /* \"#utility.yul\":1994:2000   */\n      dup2\n        /* \"#utility.yul\":1981:2001   */\n      calldataload\n        /* \"#utility.yul\":1972:2001   */\n      swap1\n      pop\n        /* \"#utility.yul\":2010:2043   */\n      tag_74\n        /* \"#utility.yul\":2037:2042   */\n      dup2\n        /* \"#utility.yul\":2010:2043   */\n      tag_42\n      jump\t// in\n    tag_74:\n        /* \"#utility.yul\":1910:2049   */\n      swap3\n      swap2\n      pop\n      pop\n      jump\t// out\n        /* \"#utility.yul\":2055:2384   */\n    tag_21:\n        /* \"#utility.yul\":2114:2120   */\n      0x00\n        /* \"#utility.yul\":2163:2165   */\n      0x20\n        /* \"#utility.yul\":2151:2160   */\n      dup3\n        /* \"#utility.yul\":2142:2149   */\n      dup5\n        /* \"#utility.yul\":2138:2161   */\n      sub\n        /* \"#utility.yul\":2134:2166   */\n      slt\n        /* \"#utility.yul\":2131:2250   */\n      iszero\n      tag_76\n      jumpi\n        /* \"#utility.yul\":2169:2248   */\n      tag_77\n      tag_40\n      jump\t// in\n    tag_77:\n        /* \"#utility.yul\":2131:2250   */\n    tag_76:\n        /* \"#utility.yul\":2289:2290   */\n      0x00\n        /* \"#utility.yul\":2314:2367   */\n      tag_78\n        /* \"#utility.yul\":2359:2366   */\n      dup5\n        /* \"#utility.yul\":2350:2356   */\n      dup3\n        /* \"#utility.yul\":2339:2348   */\n      dup6\n        /* \"#utility.yul\":2335:2357   */\n      add\n        /* \"#utility.yul\":2314:2367   */\n      tag_43\n      jump\t// in\n    tag_78:\n        /* \"#utility.yul\":2304:2367   */\n      swap2\n      pop\n        /* \"#utility.yul\":2260:2377   */\n      pop\n        /* \"#utility.yul\":2055:2384   */\n      swap3\n      swap2\n      pop\n      pop\n      jump\t// out\n        /* \"#utility.yul\":2390:2559   */\n    tag_44:\n        /* \"#utility.yul\":2474:2485   */\n      0x00\n        /* \"#utility.yul\":2508:2514   */\n      dup3\n        /* \"#utility.yul\":2503:2506   */\n      dup3\n        /* \"#utility.yul\":2496:2515   */\n      mstore\n        /* \"#utility.yul\":2548:2552   */\n      0x20\n        /* \"#utility.yul\":2543:2546   */\n      dup3\n        /* \"#utility.yul\":2539:2553   */\n      add\n        /* \"#utility.yul\":2524:2553   */\n      swap1\n      pop\n        /* \"#utility.yul\":2390:2559   */\n      swap3\n      swap2\n      pop\n      pop\n      jump\t// out\n        /* \"#utility.yul\":2565:2724   */\n    tag_45:\n        /* \"#utility.yul\":2705:2716   */\n      0x4e6f74204f776e65720000000000000000000000000000000000000000000000\n        /* \"#utility.yul\":2701:2702   */\n      0x00\n        /* \"#utility.yul\":2693:2699   */\n      dup3\n        /* \"#utility.yul\":2689:2703   */\n      add\n        /* \"#utility.yul\":2682:2717   */\n      mstore\n        /* \"#utility.yul\":2565:2724   */\n      pop\n      jump\t// out\n        /* \"#utility.yul\":2730:3095   */\n    tag_46:\n        /* \"#utility.yul\":2872:2875   */\n      0x00\n        /* \"#utility.yul\":2893:2959   */\n      tag_82\n        /* \"#utility.yul\":2957:2958   */\n      0x09\n        /* \"#utility.yul\":2952:2955   */\n      dup4\n        /* \"#utility.yul\":2893:2959   */\n      tag_44\n      jump\t// in\n    tag_82:\n        /* \"#utility.yul\":2886:2959   */\n      swap2\n      pop\n        /* \"#utility.yul\":2968:3061   */\n      tag_83\n        /* \"#utility.yul\":3057:3060   */\n      dup3\n        /* \"#utility.yul\":2968:3061   */\n      tag_45\n      jump\t// in\n    tag_83:\n        /* \"#utility.yul\":3086:3088   */\n      0x20\n        /* \"#utility.yul\":3081:3084   */\n      dup3\n        /* \"#utility.yul\":3077:3089   */\n      add\n        /* \"#utility.yul\":3070:3089   */\n      swap1\n      pop\n        /* \"#utility.yul\":2730:3095   */\n      swap2\n      swap1\n      pop\n      jump\t// out\n        /* \"#utility.yul\":3101:3520   */\n    tag_26:\n        /* \"#utility.yul\":3267:3271   */\n      0x00\n        /* \"#utility.yul\":3305:3307   */\n      0x20\n        /* \"#utility.yul\":3294:3303   */\n      dup3\n        /* \"#utility.yul\":3290:3308   */\n      add\n        /* \"#utility.yul\":3282:3308   */\n      swap1\n      pop\n        /* \"#utility.yul\":3354:3363   */\n      dup2\n        /* \"#utility.yul\":3348:3352   */\n      dup2\n        /* \"#utility.yul\":3344:3364   */\n      sub\n        /* \"#utility.yul\":3340:3341   */\n      0x00\n        /* \"#utility.yul\":3329:3338   */\n      dup4\n        /* \"#utility.yul\":3325:3342   */\n      add\n        /* \"#utility.yul\":3318:3365   */\n      mstore\n        /* \"#utility.yul\":3382:3513   */\n      tag_85\n        /* \"#utility.yul\":3508:3512   */\n      dup2\n        /* \"#utility.yul\":3382:3513   */\n      tag_46\n      jump\t// in\n    tag_85:\n        /* \"#utility.yul\":3374:3513   */\n      swap1\n      pop\n        /* \"#utility.yul\":3101:3520   */\n      swap2\n      swap1\n      pop\n      jump\t// out\n        /* \"#utility.yul\":3526:3693   */\n    tag_47:\n        /* \"#utility.yul\":3666:3685   */\n      0x4e6f742076616c69642061646472657373000000000000000000000000000000\n        /* \"#utility.yul\":3662:3663   */\n      0x00\n        /* \"#utility.yul\":3654:3660   */\n      dup3\n        /* \"#utility.yul\":3650:3664   */\n      add\n        /* \"#utility.yul\":3643:3686   */\n      mstore\n        /* \"#utility.yul\":3526:3693   */\n      pop\n      jump\t// out\n        /* \"#utility.yul\":3699:4065   */\n    tag_48:\n        /* \"#utility.yul\":3841:3844   */\n      0x00\n        /* \"#utility.yul\":3862:3929   */\n      tag_88\n        /* \"#utility.yul\":3926:3928   */\n      0x11\n        /* \"#utility.yul\":3921:3924   */\n      dup4\n        /* \"#utility.yul\":3862:3929   */\n      tag_44\n      jump\t// in\n    tag_88:\n        /* \"#utility.yul\":3855:3929   */\n      swap2\n      pop\n        /* \"#utility.yul\":3938:4031   */\n      tag_89\n        /* \"#utility.yul\":4027:4030   */\n      dup3\n        /* \"#utility.yul\":3938:4031   */\n      tag_47\n      jump\t// in\n    tag_89:\n        /* \"#utility.yul\":4056:4058   */\n      0x20\n        /* \"#utility.yul\":4051:4054   */\n      dup3\n        /* \"#utility.yul\":4047:4059   */\n      add\n        /* \"#utility.yul\":4040:4059   */\n      swap1\n      pop\n        /* \"#utility.yul\":3699:4065   */\n      swap2\n      swap1\n      pop\n      jump\t// out\n        /* \"#utility.yul\":4071:4490   */\n    tag_30:\n        /* \"#utility.yul\":4237:4241   */\n      0x00\n        /* \"#utility.yul\":4275:4277   */\n      0x20\n        /* \"#utility.yul\":4264:4273   */\n      dup3\n        /* \"#utility.yul\":4260:4278   */\n      add\n        /* \"#utility.yul\":4252:4278   */\n      swap1\n      pop\n        /* \"#utility.yul\":4324:4333   */\n      dup2\n        /* \"#utility.yul\":4318:4322   */\n      dup2\n        /* \"#utility.yul\":4314:4334   */\n      sub\n        /* \"#utility.yul\":4310:4311   */\n      0x00\n        /* \"#utility.yul\":4299:4308   */\n      dup4\n        /* \"#utility.yul\":4295:4312   */\n      add\n        /* \"#utility.yul\":4288:4335   */\n      mstore\n        /* \"#utility.yul\":4352:4483   */\n      tag_91\n        /* \"#utility.yul\":4478:4482   */\n      dup2\n        /* \"#utility.yul\":4352:4483   */\n      tag_48\n      jump\t// in\n    tag_91:\n        /* \"#utility.yul\":4344:4483   */\n      swap1\n      pop\n        /* \"#utility.yul\":4071:4490   */\n      swap2\n      swap1\n      pop\n      jump\t// out\n\n    auxdata: 0xa264697066735822122045e725217085e34fab84af8fcda73a44cd710a7b6d8011eb1d4dc5a556d64aa664736f6c63430008180033\n}\n",
				"bytecode": {
					"linkReferences": {},
					"object": "6080604052600a600155348015610014575f80fd5b50335f806101000a81548173ffffffffffffffffffffffffffffffffffffffff021916908373ffffffffffffffffffffffffffffffffffffffff160217905550610469806100615f395ff3fe608060405234801561000f575f80fd5b506004361061004a575f3560e01c80630c55699c1461004e5780638da5cb5b1461006c578063cf3090121461008a578063f2853292146100a8575b5f80fd5b6100566100c4565b6040516100639190610256565b60405180910390f35b6100746100ca565b60405161008191906102ae565b60405180910390f35b6100926100ed565b60405161009f91906102e1565b60405180910390f35b6100c260048036038101906100bd9190610328565b6100ff565b005b60015481565b5f8054906101000a900473ffffffffffffffffffffffffffffffffffffffff1681565b60025f9054906101000a900460ff1681565b5f8054906101000a900473ffffffffffffffffffffffffffffffffffffffff1673ffffffffffffffffffffffffffffffffffffffff163373ffffffffffffffffffffffffffffffffffffffff161461018c576040517f08c379a0000000000000000000000000000000000000000000000000000000008152600401610183906103ad565b60405180910390fd5b805f73ffffffffffffffffffffffffffffffffffffffff168173ffffffffffffffffffffffffffffffffffffffff16036101fb576040517f08c379a00000000000000000000000000000000000000000000000000000000081526004016101f290610415565b60405180910390fd5b815f806101000a81548173ffffffffffffffffffffffffffffffffffffffff021916908373ffffffffffffffffffffffffffffffffffffffff1602179055505050565b5f819050919050565b6102508161023e565b82525050565b5f6020820190506102695f830184610247565b92915050565b5f73ffffffffffffffffffffffffffffffffffffffff82169050919050565b5f6102988261026f565b9050919050565b6102a88161028e565b82525050565b5f6020820190506102c15f83018461029f565b92915050565b5f8115159050919050565b6102db816102c7565b82525050565b5f6020820190506102f45f8301846102d2565b92915050565b5f80fd5b6103078161028e565b8114610311575f80fd5b50565b5f81359050610322816102fe565b92915050565b5f6020828403121561033d5761033c6102fa565b5b5f61034a84828501610314565b91505092915050565b5f82825260208201905092915050565b7f4e6f74204f776e657200000000000000000000000000000000000000000000005f82015250565b5f610397600983610353565b91506103a282610363565b602082019050919050565b5f6020820190508181035f8301526103c48161038b565b9050919050565b7f4e6f742076616c696420616464726573730000000000000000000000000000005f82015250565b5f6103ff601183610353565b915061040a826103cb565b602082019050919050565b5f6020820190508181035f83015261042c816103f3565b905091905056fea264697066735822122045e725217085e34fab84af8fcda73a44cd710a7b6d8011eb1d4dc5a556d64aa664736f6c63430008180033",
					"opcodes": "PUSH1 0x80 PUSH1 0x40 MSTORE PUSH1 0xA PUSH1 0x1 SSTORE CALLVALUE DUP1 ISZERO PUSH2 0x14 JUMPI PUSH0 DUP1 REVERT JUMPDEST POP CALLER PUSH0 DUP1 PUSH2 0x100 EXP DUP2 SLOAD DUP2 PUSH20 0xFFFFFFFFFFFFFFFFFFFFFFFFFFFFFFFFFFFFFFFF MUL NOT AND SWAP1 DUP4 PUSH20 0xFFFFFFFFFFFFFFFFFFFFFFFFFFFFFFFFFFFFFFFF AND MUL OR SWAP1 SSTORE POP PUSH2 0x469 DUP1 PUSH2 0x61 PUSH0 CODECOPY PUSH0 RETURN INVALID PUSH1 0x80 PUSH1 0x40 MSTORE CALLVALUE DUP1 ISZERO PUSH2 0xF JUMPI PUSH0 DUP1 REVERT JUMPDEST POP PUSH1 0x4 CALLDATASIZE LT PUSH2 0x4A JUMPI PUSH0 CALLDATALOAD PUSH1 0xE0 SHR DUP1 PUSH4 0xC55699C EQ PUSH2 0x4E JUMPI DUP1 PUSH4 0x8DA5CB5B EQ PUSH2 0x6C JUMPI DUP1 PUSH4 0xCF309012 EQ PUSH2 0x8A JUMPI DUP1 PUSH4 0xF2853292 EQ PUSH2 0xA8 JUMPI JUMPDEST PUSH0 DUP1 REVERT JUMPDEST PUSH2 0x56 PUSH2 0xC4 JUMP JUMPDEST PUSH1 0x40 MLOAD PUSH2 0x63 SWAP2 SWAP1 PUSH2 0x256 JUMP JUMPDEST PUSH1 0x40 MLOAD DUP1 SWAP2 SUB SWAP1 RETURN JUMPDEST PUSH2 0x74 PUSH2 0xCA JUMP JUMPDEST PUSH1 0x40 MLOAD PUSH2 0x81 SWAP2 SWAP1 PUSH2 0x2AE JUMP JUMPDEST PUSH1 0x40 MLOAD DUP1 SWAP2 SUB SWAP1 RETURN JUMPDEST PUSH2 0x92 PUSH2 0xED JUMP JUMPDEST PUSH1 0x40 MLOAD PUSH2 0x9F SWAP2 SWAP1 PUSH2 0x2E1 JUMP JUMPDEST PUSH1 0x40 MLOAD DUP1 SWAP2 SUB SWAP1 RETURN JUMPDEST PUSH2 0xC2 PUSH1 0x4 DUP1 CALLDATASIZE SUB DUP2 ADD SWAP1 PUSH2 0xBD SWAP2 SWAP1 PUSH2 0x328 JUMP JUMPDEST PUSH2 0xFF JUMP JUMPDEST STOP JUMPDEST PUSH1 0x1 SLOAD DUP2 JUMP JUMPDEST PUSH0 DUP1 SLOAD SWAP1 PUSH2 0x100 EXP SWAP1 DIV PUSH20 0xFFFFFFFFFFFFFFFFFFFFFFFFFFFFFFFFFFFFFFFF AND DUP2 JUMP JUMPDEST PUSH1 0x2 PUSH0 SWAP1 SLOAD SWAP1 PUSH2 0x100 EXP SWAP1 DIV PUSH1 0xFF AND DUP2 JUMP JUMPDEST PUSH0 DUP1 SLOAD SWAP1 PUSH2 0x100 EXP SWAP1 DIV PUSH20 0xFFFFFFFFFFFFFFFFFFFFFFFFFFFFFFFFFFFFFFFF AND PUSH20 0xFFFFFFFFFFFFFFFFFFFFFFFFFFFFFFFFFFFFFFFF AND CALLER PUSH20 0xFFFFFFFFFFFFFFFFFFFFFFFFFFFFFFFFFFFFFFFF AND EQ PUSH2 0x18C JUMPI PUSH1 0x40 MLOAD PUSH32 0x8C379A000000000000000000000000000000000000000000000000000000000 DUP2 MSTORE PUSH1 0x4 ADD PUSH2 0x183 SWAP1 PUSH2 0x3AD JUMP JUMPDEST PUSH1 0x40 MLOAD DUP1 SWAP2 SUB SWAP1 REVERT JUMPDEST DUP1 PUSH0 PUSH20 0xFFFFFFFFFFFFFFFFFFFFFFFFFFFFFFFFFFFFFFFF AND DUP2 PUSH20 0xFFFFFFFFFFFFFFFFFFFFFFFFFFFFFFFFFFFFFFFF AND SUB PUSH2 0x1FB JUMPI PUSH1 0x40 MLOAD PUSH32 0x8C379A000000000000000000000000000000000000000000000000000000000 DUP2 MSTORE PUSH1 0x4 ADD PUSH2 0x1F2 SWAP1 PUSH2 0x415 JUMP JUMPDEST PUSH1 0x40 MLOAD DUP1 SWAP2 SUB SWAP1 REVERT JUMPDEST DUP2 PUSH0 DUP1 PUSH2 0x100 EXP DUP2 SLOAD DUP2 PUSH20 0xFFFFFFFFFFFFFFFFFFFFFFFFFFFFFFFFFFFFFFFF MUL NOT AND SWAP1 DUP4 PUSH20 0xFFFFFFFFFFFFFFFFFFFFFFFFFFFFFFFFFFFFFFFF AND MUL OR SWAP1 SSTORE POP POP POP JUMP JUMPDEST PUSH0 DUP2 SWAP1 POP SWAP2 SWAP1 POP JUMP JUMPDEST PUSH2 0x250 DUP2 PUSH2 0x23E JUMP JUMPDEST DUP3 MSTORE POP POP JUMP JUMPDEST PUSH0 PUSH1 0x20 DUP3 ADD SWAP1 POP PUSH2 0x269 PUSH0 DUP4 ADD DUP5 PUSH2 0x247 JUMP JUMPDEST SWAP3 SWAP2 POP POP JUMP JUMPDEST PUSH0 PUSH20 0xFFFFFFFFFFFFFFFFFFFFFFFFFFFFFFFFFFFFFFFF DUP3 AND SWAP1 POP SWAP2 SWAP1 POP JUMP JUMPDEST PUSH0 PUSH2 0x298 DUP3 PUSH2 0x26F JUMP JUMPDEST SWAP1 POP SWAP2 SWAP1 POP JUMP JUMPDEST PUSH2 0x2A8 DUP2 PUSH2 0x28E JUMP JUMPDEST DUP3 MSTORE POP POP JUMP JUMPDEST PUSH0 PUSH1 0x20 DUP3 ADD SWAP1 POP PUSH2 0x2C1 PUSH0 DUP4 ADD DUP5 PUSH2 0x29F JUMP JUMPDEST SWAP3 SWAP2 POP POP JUMP JUMPDEST PUSH0 DUP2 ISZERO ISZERO SWAP1 POP SWAP2 SWAP1 POP JUMP JUMPDEST PUSH2 0x2DB DUP2 PUSH2 0x2C7 JUMP JUMPDEST DUP3 MSTORE POP POP JUMP JUMPDEST PUSH0 PUSH1 0x20 DUP3 ADD SWAP1 POP PUSH2 0x2F4 PUSH0 DUP4 ADD DUP5 PUSH2 0x2D2 JUMP JUMPDEST SWAP3 SWAP2 POP POP JUMP JUMPDEST PUSH0 DUP1 REVERT JUMPDEST PUSH2 0x307 DUP2 PUSH2 0x28E JUMP JUMPDEST DUP2 EQ PUSH2 0x311 JUMPI PUSH0 DUP1 REVERT JUMPDEST POP JUMP JUMPDEST PUSH0 DUP2 CALLDATALOAD SWAP1 POP PUSH2 0x322 DUP2 PUSH2 0x2FE JUMP JUMPDEST SWAP3 SWAP2 POP POP JUMP JUMPDEST PUSH0 PUSH1 0x20 DUP3 DUP5 SUB SLT ISZERO PUSH2 0x33D JUMPI PUSH2 0x33C PUSH2 0x2FA JUMP JUMPDEST JUMPDEST PUSH0 PUSH2 0x34A DUP5 DUP3 DUP6 ADD PUSH2 0x314 JUMP JUMPDEST SWAP2 POP POP SWAP3 SWAP2 POP POP JUMP JUMPDEST PUSH0 DUP3 DUP3 MSTORE PUSH1 0x20 DUP3 ADD SWAP1 POP SWAP3 SWAP2 POP POP JUMP JUMPDEST PUSH32 0x4E6F74204F776E65720000000000000000000000000000000000000000000000 PUSH0 DUP3 ADD MSTORE POP JUMP JUMPDEST PUSH0 PUSH2 0x397 PUSH1 0x9 DUP4 PUSH2 0x353 JUMP JUMPDEST SWAP2 POP PUSH2 0x3A2 DUP3 PUSH2 0x363 JUMP JUMPDEST PUSH1 0x20 DUP3 ADD SWAP1 POP SWAP2 SWAP1 POP JUMP JUMPDEST PUSH0 PUSH1 0x20 DUP3 ADD SWAP1 POP DUP2 DUP2 SUB PUSH0 DUP4 ADD MSTORE PUSH2 0x3C4 DUP2 PUSH2 0x38B JUMP JUMPDEST SWAP1 POP SWAP2 SWAP1 POP JUMP JUMPDEST PUSH32 0x4E6F742076616C69642061646472657373000000000000000000000000000000 PUSH0 DUP3 ADD MSTORE POP JUMP JUMPDEST PUSH0 PUSH2 0x3FF PUSH1 0x11 DUP4 PUSH2 0x353 JUMP JUMPDEST SWAP2 POP PUSH2 0x40A DUP3 PUSH2 0x3CB JUMP JUMPDEST PUSH1 0x20 DUP3 ADD SWAP1 POP SWAP2 SWAP1 POP JUMP JUMPDEST PUSH0 PUSH1 0x20 DUP3 ADD SWAP1 POP DUP2 DUP2 SUB PUSH0 DUP4 ADD MSTORE PUSH2 0x42C DUP2 PUSH2 0x3F3 JUMP JUMPDEST SWAP1 POP SWAP2 SWAP1 POP JUMP INVALID LOG2 PUSH5 0x6970667358 0x22 SLT KECCAK256 GASLIMIT 0xE7 0x25 0x21 PUSH17 0x85E34FAB84AF8FCDA73A44CD710A7B6D80 GT 0xEB SAR 0x4D 0xC5 0xA5 JUMP 0xD6 BLOBBASEFEE 0xA6 PUSH5 0x736F6C6343 STOP ADDMOD XOR STOP CALLER "
				},
				"gasEstimates": {
					"creation": {
						"codeDepositCost": "225800",
						"executionCost": "46638",
						"totalCost": "272438"
					},
					"external": {
						"ChangeOwner(address)": "26964",
						"locked()": "2488",
						"owner()": "2505",
						"x()": "2403"
					}
				},
				"methodIdentifiers": {
					"ChangeOwner(address)": "f2853292",
					"locked()": "cf309012",
					"owner()": "8da5cb5b",
					"x()": "0c55699c"
				}
			},
			"storageLayout": {
				"storage": [
					{
						"astId": 3,
						"contract": "modifiers.sol:Modifiers",
						"label": "owner",
						"offset": 0,
						"slot": "0",
						"type": "t_address"
					},
					{
						"astId": 6,
						"contract": "modifiers.sol:Modifiers",
						"label": "x",
						"offset": 0,
						"slot": "1",
						"type": "t_uint256"
					},
					{
						"astId": 8,
						"contract": "modifiers.sol:Modifiers",
						"label": "locked",
						"offset": 0,
						"slot": "2",
						"type": "t_bool"
					}
				],
				"types": {
					"t_address": {
						"encoding": "inplace",
						"label": "address",
						"numberOfBytes": "20"
					},
					"t_bool": {
						"encoding": "inplace",
						"label": "bool",
						"numberOfBytes": "1"
					},
					"t_uint256": {
						"encoding": "inplace",
						"label": "uint256",
						"numberOfBytes": "32"
					}
				}
			},
			"userdoc": {
				"kind": "user",
				"methods": {},
				"version": 1
			}
		}
	}
}