{
	"If_else.sol": {
		"Conditional": {
			"abi": [
				{
					"inputs": [],
					"name": "myNum",
					"outputs": [
						{
							"internalType": "int256",
							"name": "",
							"type": "int256"
						}
					],
					"stateMutability": "view",
					"type": "function"
				},
				{
					"inputs": [],
					"name": "myString",
					"outputs": [
						{
							"internalType": "string",
							"name": "",
							"type": "string"
						}
					],
					"stateMutability": "view",
					"type": "function"
				},
				{
					"inputs": [
						{
							"internalType": "uint256",
							"name": "_num",
							"type": "uint256"
						}
					],
					"name": "shorthand",
					"outputs": [
						{
							"internalType": "string",
							"name": "",
							"type": "string"
						}
					],
					"stateMutability": "nonpayable",
					"type": "function"
				}
			],
			"devdoc": {
				"kind": "dev",
				"methods": {},
				"version": 1
			},
			"evm": {
				"assembly": "    /* \"If_else.sol\":59:708  contract Conditional {... */\n  mstore(0x40, 0x80)\n    /* \"If_else.sol\":109:110  5 */\n  0x05\n    /* \"If_else.sol\":87:110  int256 public myNum = 5 */\n  0x00\n  sstore\n    /* \"If_else.sol\":117:147  string public myString = \"ABC\" */\n  mload(0x40)\n  dup1\n  0x40\n  add\n  0x40\n  mstore\n  dup1\n  0x03\n  dup2\n  mstore\n  0x20\n  add\n  0x4142430000000000000000000000000000000000000000000000000000000000\n  dup2\n  mstore\n  pop\n  0x01\n  swap1\n  dup2\n  tag_1\n  swap2\n  swap1\n  tag_2\n  jump\t// in\ntag_1:\n  pop\n    /* \"If_else.sol\":59:708  contract Conditional {... */\n  callvalue\n  dup1\n  iszero\n  tag_3\n  jumpi\n  0x00\n  dup1\n  revert\ntag_3:\n  pop\n  jump(tag_4)\n    /* \"#utility.yul\":7:106   */\ntag_5:\n    /* \"#utility.yul\":59:65   */\n  0x00\n    /* \"#utility.yul\":93:98   */\n  dup2\n    /* \"#utility.yul\":87:99   */\n  mload\n    /* \"#utility.yul\":77:99   */\n  swap1\n  pop\n    /* \"#utility.yul\":7:106   */\n  swap2\n  swap1\n  pop\n  jump\t// out\n    /* \"#utility.yul\":112:292   */\ntag_6:\n    /* \"#utility.yul\":160:237   */\n  0x4e487b7100000000000000000000000000000000000000000000000000000000\n    /* \"#utility.yul\":157:158   */\n  0x00\n    /* \"#utility.yul\":150:238   */\n  mstore\n    /* \"#utility.yul\":257:261   */\n  0x41\n    /* \"#utility.yul\":254:255   */\n  0x04\n    /* \"#utility.yul\":247:262   */\n  mstore\n    /* \"#utility.yul\":281:285   */\n  0x24\n    /* \"#utility.yul\":278:279   */\n  0x00\n    /* \"#utility.yul\":271:286   */\n  revert\n    /* \"#utility.yul\":298:478   */\ntag_7:\n    /* \"#utility.yul\":346:423   */\n  0x4e487b7100000000000000000000000000000000000000000000000000000000\n    /* \"#utility.yul\":343:344   */\n  0x00\n    /* \"#utility.yul\":336:424   */\n  mstore\n    /* \"#utility.yul\":443:447   */\n  0x22\n    /* \"#utility.yul\":440:441   */\n  0x04\n    /* \"#utility.yul\":433:448   */\n  mstore\n    /* \"#utility.yul\":467:471   */\n  0x24\n    /* \"#utility.yul\":464:465   */\n  0x00\n    /* \"#utility.yul\":457:472   */\n  revert\n    /* \"#utility.yul\":484:804   */\ntag_8:\n    /* \"#utility.yul\":528:534   */\n  0x00\n    /* \"#utility.yul\":565:566   */\n  0x02\n    /* \"#utility.yul\":559:563   */\n  dup3\n    /* \"#utility.yul\":555:567   */\n  div\n    /* \"#utility.yul\":545:567   */\n  swap1\n  pop\n    /* \"#utility.yul\":612:613   */\n  0x01\n    /* \"#utility.yul\":606:610   */\n  dup3\n    /* \"#utility.yul\":602:614   */\n  and\n    /* \"#utility.yul\":633:651   */\n  dup1\n    /* \"#utility.yul\":623:704   */\n  tag_30\n  jumpi\n    /* \"#utility.yul\":689:693   */\n  0x7f\n    /* \"#utility.yul\":681:687   */\n  dup3\n    /* \"#utility.yul\":677:694   */\n  and\n    /* \"#utility.yul\":667:694   */\n  swap2\n  pop\n    /* \"#utility.yul\":623:704   */\ntag_30:\n    /* \"#utility.yul\":751:753   */\n  0x20\n    /* \"#utility.yul\":743:749   */\n  dup3\n    /* \"#utility.yul\":740:754   */\n  lt\n    /* \"#utility.yul\":720:738   */\n  dup2\n    /* \"#utility.yul\":717:755   */\n  sub\n    /* \"#utility.yul\":714:798   */\n  tag_31\n  jumpi\n    /* \"#utility.yul\":770:788   */\n  tag_32\n  tag_7\n  jump\t// in\ntag_32:\n    /* \"#utility.yul\":714:798   */\ntag_31:\n    /* \"#utility.yul\":535:804   */\n  pop\n    /* \"#utility.yul\":484:804   */\n  swap2\n  swap1\n  pop\n  jump\t// out\n    /* \"#utility.yul\":810:951   */\ntag_9:\n    /* \"#utility.yul\":859:863   */\n  0x00\n    /* \"#utility.yul\":882:885   */\n  dup2\n    /* \"#utility.yul\":874:885   */\n  swap1\n  pop\n    /* \"#utility.yul\":905:908   */\n  dup2\n    /* \"#utility.yul\":902:903   */\n  0x00\n    /* \"#utility.yul\":895:909   */\n  mstore\n    /* \"#utility.yul\":939:943   */\n  0x20\n    /* \"#utility.yul\":936:937   */\n  0x00\n    /* \"#utility.yul\":926:944   */\n  keccak256\n    /* \"#utility.yul\":918:944   */\n  swap1\n  pop\n    /* \"#utility.yul\":810:951   */\n  swap2\n  swap1\n  pop\n  jump\t// out\n    /* \"#utility.yul\":957:1050   */\ntag_10:\n    /* \"#utility.yul\":994:1000   */\n  0x00\n    /* \"#utility.yul\":1041:1043   */\n  0x20\n    /* \"#utility.yul\":1036:1038   */\n  0x1f\n    /* \"#utility.yul\":1029:1034   */\n  dup4\n    /* \"#utility.yul\":1025:1039   */\n  add\n    /* \"#utility.yul\":1021:1044   */\n  div\n    /* \"#utility.yul\":1011:1044   */\n  swap1\n  pop\n    /* \"#utility.yul\":957:1050   */\n  swap2\n  swap1\n  pop\n  jump\t// out\n    /* \"#utility.yul\":1056:1163   */\ntag_11:\n    /* \"#utility.yul\":1100:1108   */\n  0x00\n    /* \"#utility.yul\":1150:1155   */\n  dup3\n    /* \"#utility.yul\":1144:1148   */\n  dup3\n    /* \"#utility.yul\":1140:1156   */\n  shl\n    /* \"#utility.yul\":1119:1156   */\n  swap1\n  pop\n    /* \"#utility.yul\":1056:1163   */\n  swap3\n  swap2\n  pop\n  pop\n  jump\t// out\n    /* \"#utility.yul\":1169:1562   */\ntag_12:\n    /* \"#utility.yul\":1238:1244   */\n  0x00\n    /* \"#utility.yul\":1288:1289   */\n  0x08\n    /* \"#utility.yul\":1276:1286   */\n  dup4\n    /* \"#utility.yul\":1272:1290   */\n  mul\n    /* \"#utility.yul\":1311:1408   */\n  tag_37\n    /* \"#utility.yul\":1341:1407   */\n  0xffffffffffffffffffffffffffffffffffffffffffffffffffffffffffffffff\n    /* \"#utility.yul\":1330:1339   */\n  dup3\n    /* \"#utility.yul\":1311:1408   */\n  tag_11\n  jump\t// in\ntag_37:\n    /* \"#utility.yul\":1429:1468   */\n  tag_38\n    /* \"#utility.yul\":1459:1467   */\n  dup7\n    /* \"#utility.yul\":1448:1457   */\n  dup4\n    /* \"#utility.yul\":1429:1468   */\n  tag_11\n  jump\t// in\ntag_38:\n    /* \"#utility.yul\":1417:1468   */\n  swap6\n  pop\n    /* \"#utility.yul\":1501:1505   */\n  dup1\n    /* \"#utility.yul\":1497:1506   */\n  not\n    /* \"#utility.yul\":1490:1495   */\n  dup5\n    /* \"#utility.yul\":1486:1507   */\n  and\n    /* \"#utility.yul\":1477:1507   */\n  swap4\n  pop\n    /* \"#utility.yul\":1550:1554   */\n  dup1\n    /* \"#utility.yul\":1540:1548   */\n  dup7\n    /* \"#utility.yul\":1536:1555   */\n  and\n    /* \"#utility.yul\":1529:1534   */\n  dup5\n    /* \"#utility.yul\":1526:1556   */\n  or\n    /* \"#utility.yul\":1516:1556   */\n  swap3\n  pop\n    /* \"#utility.yul\":1245:1562   */\n  pop\n  pop\n    /* \"#utility.yul\":1169:1562   */\n  swap4\n  swap3\n  pop\n  pop\n  pop\n  jump\t// out\n    /* \"#utility.yul\":1568:1645   */\ntag_13:\n    /* \"#utility.yul\":1605:1612   */\n  0x00\n    /* \"#utility.yul\":1634:1639   */\n  dup2\n    /* \"#utility.yul\":1623:1639   */\n  swap1\n  pop\n    /* \"#utility.yul\":1568:1645   */\n  swap2\n  swap1\n  pop\n  jump\t// out\n    /* \"#utility.yul\":1651:1711   */\ntag_14:\n    /* \"#utility.yul\":1679:1682   */\n  0x00\n    /* \"#utility.yul\":1700:1705   */\n  dup2\n    /* \"#utility.yul\":1693:1705   */\n  swap1\n  pop\n    /* \"#utility.yul\":1651:1711   */\n  swap2\n  swap1\n  pop\n  jump\t// out\n    /* \"#utility.yul\":1717:1859   */\ntag_15:\n    /* \"#utility.yul\":1767:1776   */\n  0x00\n    /* \"#utility.yul\":1800:1853   */\n  tag_42\n    /* \"#utility.yul\":1818:1852   */\n  tag_43\n    /* \"#utility.yul\":1827:1851   */\n  tag_44\n    /* \"#utility.yul\":1845:1850   */\n  dup5\n    /* \"#utility.yul\":1827:1851   */\n  tag_13\n  jump\t// in\ntag_44:\n    /* \"#utility.yul\":1818:1852   */\n  tag_14\n  jump\t// in\ntag_43:\n    /* \"#utility.yul\":1800:1853   */\n  tag_13\n  jump\t// in\ntag_42:\n    /* \"#utility.yul\":1787:1853   */\n  swap1\n  pop\n    /* \"#utility.yul\":1717:1859   */\n  swap2\n  swap1\n  pop\n  jump\t// out\n    /* \"#utility.yul\":1865:1940   */\ntag_16:\n    /* \"#utility.yul\":1908:1911   */\n  0x00\n    /* \"#utility.yul\":1929:1934   */\n  dup2\n    /* \"#utility.yul\":1922:1934   */\n  swap1\n  pop\n    /* \"#utility.yul\":1865:1940   */\n  swap2\n  swap1\n  pop\n  jump\t// out\n    /* \"#utility.yul\":1946:2215   */\ntag_17:\n    /* \"#utility.yul\":2056:2095   */\n  tag_47\n    /* \"#utility.yul\":2087:2094   */\n  dup4\n    /* \"#utility.yul\":2056:2095   */\n  tag_15\n  jump\t// in\ntag_47:\n    /* \"#utility.yul\":2117:2208   */\n  tag_48\n    /* \"#utility.yul\":2166:2207   */\n  tag_49\n    /* \"#utility.yul\":2190:2206   */\n  dup3\n    /* \"#utility.yul\":2166:2207   */\n  tag_16\n  jump\t// in\ntag_49:\n    /* \"#utility.yul\":2158:2164   */\n  dup5\n    /* \"#utility.yul\":2151:2155   */\n  dup5\n    /* \"#utility.yul\":2145:2156   */\n  sload\n    /* \"#utility.yul\":2117:2208   */\n  tag_12\n  jump\t// in\ntag_48:\n    /* \"#utility.yul\":2111:2115   */\n  dup3\n    /* \"#utility.yul\":2104:2209   */\n  sstore\n    /* \"#utility.yul\":2022:2215   */\n  pop\n    /* \"#utility.yul\":1946:2215   */\n  pop\n  pop\n  pop\n  jump\t// out\n    /* \"#utility.yul\":2221:2294   */\ntag_18:\n    /* \"#utility.yul\":2266:2269   */\n  0x00\n    /* \"#utility.yul\":2221:2294   */\n  swap1\n  jump\t// out\n    /* \"#utility.yul\":2300:2489   */\ntag_19:\n    /* \"#utility.yul\":2377:2409   */\n  tag_52\n  tag_18\n  jump\t// in\ntag_52:\n    /* \"#utility.yul\":2418:2483   */\n  tag_53\n    /* \"#utility.yul\":2476:2482   */\n  dup2\n    /* \"#utility.yul\":2468:2474   */\n  dup5\n    /* \"#utility.yul\":2462:2466   */\n  dup5\n    /* \"#utility.yul\":2418:2483   */\n  tag_17\n  jump\t// in\ntag_53:\n    /* \"#utility.yul\":2353:2489   */\n  pop\n    /* \"#utility.yul\":2300:2489   */\n  pop\n  pop\n  jump\t// out\n    /* \"#utility.yul\":2495:2681   */\ntag_20:\n    /* \"#utility.yul\":2555:2675   */\ntag_55:\n    /* \"#utility.yul\":2572:2575   */\n  dup2\n    /* \"#utility.yul\":2565:2570   */\n  dup2\n    /* \"#utility.yul\":2562:2576   */\n  lt\n    /* \"#utility.yul\":2555:2675   */\n  iszero\n  tag_57\n  jumpi\n    /* \"#utility.yul\":2626:2665   */\n  tag_58\n    /* \"#utility.yul\":2663:2664   */\n  0x00\n    /* \"#utility.yul\":2656:2661   */\n  dup3\n    /* \"#utility.yul\":2626:2665   */\n  tag_19\n  jump\t// in\ntag_58:\n    /* \"#utility.yul\":2599:2600   */\n  0x01\n    /* \"#utility.yul\":2592:2597   */\n  dup2\n    /* \"#utility.yul\":2588:2601   */\n  add\n    /* \"#utility.yul\":2579:2601   */\n  swap1\n  pop\n    /* \"#utility.yul\":2555:2675   */\n  jump(tag_55)\ntag_57:\n    /* \"#utility.yul\":2495:2681   */\n  pop\n  pop\n  jump\t// out\n    /* \"#utility.yul\":2687:3230   */\ntag_21:\n    /* \"#utility.yul\":2788:2790   */\n  0x1f\n    /* \"#utility.yul\":2783:2786   */\n  dup3\n    /* \"#utility.yul\":2780:2791   */\n  gt\n    /* \"#utility.yul\":2777:3223   */\n  iszero\n  tag_60\n  jumpi\n    /* \"#utility.yul\":2822:2860   */\n  tag_61\n    /* \"#utility.yul\":2854:2859   */\n  dup2\n    /* \"#utility.yul\":2822:2860   */\n  tag_9\n  jump\t// in\ntag_61:\n    /* \"#utility.yul\":2906:2935   */\n  tag_62\n    /* \"#utility.yul\":2924:2934   */\n  dup5\n    /* \"#utility.yul\":2906:2935   */\n  tag_10\n  jump\t// in\ntag_62:\n    /* \"#utility.yul\":2896:2904   */\n  dup2\n    /* \"#utility.yul\":2892:2936   */\n  add\n    /* \"#utility.yul\":3089:3091   */\n  0x20\n    /* \"#utility.yul\":3077:3087   */\n  dup6\n    /* \"#utility.yul\":3074:3092   */\n  lt\n    /* \"#utility.yul\":3071:3120   */\n  iszero\n  tag_63\n  jumpi\n    /* \"#utility.yul\":3110:3118   */\n  dup2\n    /* \"#utility.yul\":3095:3118   */\n  swap1\n  pop\n    /* \"#utility.yul\":3071:3120   */\ntag_63:\n    /* \"#utility.yul\":3133:3213   */\n  tag_64\n    /* \"#utility.yul\":3189:3211   */\n  tag_65\n    /* \"#utility.yul\":3207:3210   */\n  dup6\n    /* \"#utility.yul\":3189:3211   */\n  tag_10\n  jump\t// in\ntag_65:\n    /* \"#utility.yul\":3179:3187   */\n  dup4\n    /* \"#utility.yul\":3175:3212   */\n  add\n    /* \"#utility.yul\":3162:3173   */\n  dup3\n    /* \"#utility.yul\":3133:3213   */\n  tag_20\n  jump\t// in\ntag_64:\n    /* \"#utility.yul\":2792:3223   */\n  pop\n  pop\n    /* \"#utility.yul\":2777:3223   */\ntag_60:\n    /* \"#utility.yul\":2687:3230   */\n  pop\n  pop\n  pop\n  jump\t// out\n    /* \"#utility.yul\":3236:3353   */\ntag_22:\n    /* \"#utility.yul\":3290:3298   */\n  0x00\n    /* \"#utility.yul\":3340:3345   */\n  dup3\n    /* \"#utility.yul\":3334:3338   */\n  dup3\n    /* \"#utility.yul\":3330:3346   */\n  shr\n    /* \"#utility.yul\":3309:3346   */\n  swap1\n  pop\n    /* \"#utility.yul\":3236:3353   */\n  swap3\n  swap2\n  pop\n  pop\n  jump\t// out\n    /* \"#utility.yul\":3359:3528   */\ntag_23:\n    /* \"#utility.yul\":3403:3409   */\n  0x00\n    /* \"#utility.yul\":3436:3487   */\n  tag_68\n    /* \"#utility.yul\":3484:3485   */\n  0x00\n    /* \"#utility.yul\":3480:3486   */\n  not\n    /* \"#utility.yul\":3472:3477   */\n  dup5\n    /* \"#utility.yul\":3469:3470   */\n  0x08\n    /* \"#utility.yul\":3465:3478   */\n  mul\n    /* \"#utility.yul\":3436:3487   */\n  tag_22\n  jump\t// in\ntag_68:\n    /* \"#utility.yul\":3432:3488   */\n  not\n    /* \"#utility.yul\":3517:3521   */\n  dup1\n    /* \"#utility.yul\":3511:3515   */\n  dup4\n    /* \"#utility.yul\":3507:3522   */\n  and\n    /* \"#utility.yul\":3497:3522   */\n  swap2\n  pop\n    /* \"#utility.yul\":3410:3528   */\n  pop\n    /* \"#utility.yul\":3359:3528   */\n  swap3\n  swap2\n  pop\n  pop\n  jump\t// out\n    /* \"#utility.yul\":3533:3828   */\ntag_24:\n    /* \"#utility.yul\":3609:3613   */\n  0x00\n    /* \"#utility.yul\":3755:3784   */\n  tag_70\n    /* \"#utility.yul\":3780:3783   */\n  dup4\n    /* \"#utility.yul\":3774:3778   */\n  dup4\n    /* \"#utility.yul\":3755:3784   */\n  tag_23\n  jump\t// in\ntag_70:\n    /* \"#utility.yul\":3747:3784   */\n  swap2\n  pop\n    /* \"#utility.yul\":3817:3820   */\n  dup3\n    /* \"#utility.yul\":3814:3815   */\n  0x02\n    /* \"#utility.yul\":3810:3821   */\n  mul\n    /* \"#utility.yul\":3804:3808   */\n  dup3\n    /* \"#utility.yul\":3801:3822   */\n  or\n    /* \"#utility.yul\":3793:3822   */\n  swap1\n  pop\n    /* \"#utility.yul\":3533:3828   */\n  swap3\n  swap2\n  pop\n  pop\n  jump\t// out\n    /* \"#utility.yul\":3833:5228   */\ntag_2:\n    /* \"#utility.yul\":3950:3987   */\n  tag_72\n    /* \"#utility.yul\":3983:3986   */\n  dup3\n    /* \"#utility.yul\":3950:3987   */\n  tag_5\n  jump\t// in\ntag_72:\n    /* \"#utility.yul\":4052:4070   */\n  0xffffffffffffffff\n    /* \"#utility.yul\":4044:4050   */\n  dup2\n    /* \"#utility.yul\":4041:4071   */\n  gt\n    /* \"#utility.yul\":4038:4094   */\n  iszero\n  tag_73\n  jumpi\n    /* \"#utility.yul\":4074:4092   */\n  tag_74\n  tag_6\n  jump\t// in\ntag_74:\n    /* \"#utility.yul\":4038:4094   */\ntag_73:\n    /* \"#utility.yul\":4118:4156   */\n  tag_75\n    /* \"#utility.yul\":4150:4154   */\n  dup3\n    /* \"#utility.yul\":4144:4155   */\n  sload\n    /* \"#utility.yul\":4118:4156   */\n  tag_8\n  jump\t// in\ntag_75:\n    /* \"#utility.yul\":4203:4270   */\n  tag_76\n    /* \"#utility.yul\":4263:4269   */\n  dup3\n    /* \"#utility.yul\":4255:4261   */\n  dup3\n    /* \"#utility.yul\":4249:4253   */\n  dup6\n    /* \"#utility.yul\":4203:4270   */\n  tag_21\n  jump\t// in\ntag_76:\n    /* \"#utility.yul\":4297:4298   */\n  0x00\n    /* \"#utility.yul\":4321:4325   */\n  0x20\n    /* \"#utility.yul\":4308:4325   */\n  swap1\n  pop\n    /* \"#utility.yul\":4353:4355   */\n  0x1f\n    /* \"#utility.yul\":4345:4351   */\n  dup4\n    /* \"#utility.yul\":4342:4356   */\n  gt\n    /* \"#utility.yul\":4370:4371   */\n  0x01\n    /* \"#utility.yul\":4365:4983   */\n  dup2\n  eq\n  tag_78\n  jumpi\n    /* \"#utility.yul\":5027:5028   */\n  0x00\n    /* \"#utility.yul\":5044:5050   */\n  dup5\n    /* \"#utility.yul\":5041:5118   */\n  iszero\n  tag_79\n  jumpi\n    /* \"#utility.yul\":5093:5102   */\n  dup3\n    /* \"#utility.yul\":5088:5091   */\n  dup8\n    /* \"#utility.yul\":5084:5103   */\n  add\n    /* \"#utility.yul\":5078:5104   */\n  mload\n    /* \"#utility.yul\":5069:5104   */\n  swap1\n  pop\n    /* \"#utility.yul\":5041:5118   */\ntag_79:\n    /* \"#utility.yul\":5144:5211   */\n  tag_80\n    /* \"#utility.yul\":5204:5210   */\n  dup6\n    /* \"#utility.yul\":5197:5202   */\n  dup3\n    /* \"#utility.yul\":5144:5211   */\n  tag_24\n  jump\t// in\ntag_80:\n    /* \"#utility.yul\":5138:5142   */\n  dup7\n    /* \"#utility.yul\":5131:5212   */\n  sstore\n    /* \"#utility.yul\":5000:5222   */\n  pop\n    /* \"#utility.yul\":4335:5222   */\n  jump(tag_77)\n    /* \"#utility.yul\":4365:4983   */\ntag_78:\n    /* \"#utility.yul\":4417:4421   */\n  0x1f\n    /* \"#utility.yul\":4413:4422   */\n  not\n    /* \"#utility.yul\":4405:4411   */\n  dup5\n    /* \"#utility.yul\":4401:4423   */\n  and\n    /* \"#utility.yul\":4451:4488   */\n  tag_81\n    /* \"#utility.yul\":4483:4487   */\n  dup7\n    /* \"#utility.yul\":4451:4488   */\n  tag_9\n  jump\t// in\ntag_81:\n    /* \"#utility.yul\":4510:4511   */\n  0x00\n    /* \"#utility.yul\":4524:4732   */\ntag_82:\n    /* \"#utility.yul\":4538:4545   */\n  dup3\n    /* \"#utility.yul\":4535:4536   */\n  dup2\n    /* \"#utility.yul\":4532:4546   */\n  lt\n    /* \"#utility.yul\":4524:4732   */\n  iszero\n  tag_84\n  jumpi\n    /* \"#utility.yul\":4617:4626   */\n  dup5\n    /* \"#utility.yul\":4612:4615   */\n  dup10\n    /* \"#utility.yul\":4608:4627   */\n  add\n    /* \"#utility.yul\":4602:4628   */\n  mload\n    /* \"#utility.yul\":4594:4600   */\n  dup3\n    /* \"#utility.yul\":4587:4629   */\n  sstore\n    /* \"#utility.yul\":4668:4669   */\n  0x01\n    /* \"#utility.yul\":4660:4666   */\n  dup3\n    /* \"#utility.yul\":4656:4670   */\n  add\n    /* \"#utility.yul\":4646:4670   */\n  swap2\n  pop\n    /* \"#utility.yul\":4715:4717   */\n  0x20\n    /* \"#utility.yul\":4704:4713   */\n  dup6\n    /* \"#utility.yul\":4700:4718   */\n  add\n    /* \"#utility.yul\":4687:4718   */\n  swap5\n  pop\n    /* \"#utility.yul\":4561:4565   */\n  0x20\n    /* \"#utility.yul\":4558:4559   */\n  dup2\n    /* \"#utility.yul\":4554:4566   */\n  add\n    /* \"#utility.yul\":4549:4566   */\n  swap1\n  pop\n    /* \"#utility.yul\":4524:4732   */\n  jump(tag_82)\ntag_84:\n    /* \"#utility.yul\":4760:4766   */\n  dup7\n    /* \"#utility.yul\":4751:4758   */\n  dup4\n    /* \"#utility.yul\":4748:4767   */\n  lt\n    /* \"#utility.yul\":4745:4924   */\n  iszero\n  tag_85\n  jumpi\n    /* \"#utility.yul\":4818:4827   */\n  dup5\n    /* \"#utility.yul\":4813:4816   */\n  dup10\n    /* \"#utility.yul\":4809:4828   */\n  add\n    /* \"#utility.yul\":4803:4829   */\n  mload\n    /* \"#utility.yul\":4861:4909   */\n  tag_86\n    /* \"#utility.yul\":4903:4907   */\n  0x1f\n    /* \"#utility.yul\":4895:4901   */\n  dup10\n    /* \"#utility.yul\":4891:4908   */\n  and\n    /* \"#utility.yul\":4880:4889   */\n  dup3\n    /* \"#utility.yul\":4861:4909   */\n  tag_23\n  jump\t// in\ntag_86:\n    /* \"#utility.yul\":4853:4859   */\n  dup4\n    /* \"#utility.yul\":4846:4910   */\n  sstore\n    /* \"#utility.yul\":4768:4924   */\n  pop\n    /* \"#utility.yul\":4745:4924   */\ntag_85:\n    /* \"#utility.yul\":4970:4971   */\n  0x01\n    /* \"#utility.yul\":4966:4967   */\n  0x02\n    /* \"#utility.yul\":4958:4964   */\n  dup9\n    /* \"#utility.yul\":4954:4968   */\n  mul\n    /* \"#utility.yul\":4950:4972   */\n  add\n    /* \"#utility.yul\":4944:4948   */\n  dup9\n    /* \"#utility.yul\":4937:4973   */\n  sstore\n    /* \"#utility.yul\":4372:4983   */\n  pop\n  pop\n  pop\n    /* \"#utility.yul\":4335:5222   */\ntag_77:\n  pop\n    /* \"#utility.yul\":3925:5228   */\n  pop\n  pop\n  pop\n    /* \"#utility.yul\":3833:5228   */\n  pop\n  pop\n  jump\t// out\n    /* \"If_else.sol\":59:708  contract Conditional {... */\ntag_4:\n  dataSize(sub_0)\n  dup1\n  dataOffset(sub_0)\n  0x00\n  codecopy\n  0x00\n  return\nstop\n\nsub_0: assembly {\n        /* \"If_else.sol\":59:708  contract Conditional {... */\n      mstore(0x40, 0x80)\n      callvalue\n      dup1\n      iszero\n      tag_1\n      jumpi\n      0x00\n      dup1\n      revert\n    tag_1:\n      pop\n      jumpi(tag_2, lt(calldatasize, 0x04))\n      shr(0xe0, calldataload(0x00))\n      dup1\n      0x492bfa18\n      eq\n      tag_3\n      jumpi\n      dup1\n      0x54884651\n      eq\n      tag_4\n      jumpi\n      dup1\n      0xd4da005a\n      eq\n      tag_5\n      jumpi\n    tag_2:\n      0x00\n      dup1\n      revert\n        /* \"If_else.sol\":117:147  string public myString = \"ABC\" */\n    tag_3:\n      tag_6\n      tag_7\n      jump\t// in\n    tag_6:\n      mload(0x40)\n      tag_8\n      swap2\n      swap1\n      tag_9\n      jump\t// in\n    tag_8:\n      mload(0x40)\n      dup1\n      swap2\n      sub\n      swap1\n      return\n        /* \"If_else.sol\":554:705  function shorthand(uint256 _num) public returns(string memory) {... */\n    tag_4:\n      tag_10\n      0x04\n      dup1\n      calldatasize\n      sub\n      dup2\n      add\n      swap1\n      tag_11\n      swap2\n      swap1\n      tag_12\n      jump\t// in\n    tag_11:\n      tag_13\n      jump\t// in\n    tag_10:\n      mload(0x40)\n      tag_14\n      swap2\n      swap1\n      tag_9\n      jump\t// in\n    tag_14:\n      mload(0x40)\n      dup1\n      swap2\n      sub\n      swap1\n      return\n        /* \"If_else.sol\":87:110  int256 public myNum = 5 */\n    tag_5:\n      tag_15\n      tag_16\n      jump\t// in\n    tag_15:\n      mload(0x40)\n      tag_17\n      swap2\n      swap1\n      tag_18\n      jump\t// in\n    tag_17:\n      mload(0x40)\n      dup1\n      swap2\n      sub\n      swap1\n      return\n        /* \"If_else.sol\":117:147  string public myString = \"ABC\" */\n    tag_7:\n      0x01\n      dup1\n      sload\n      tag_19\n      swap1\n      tag_20\n      jump\t// in\n    tag_19:\n      dup1\n      0x1f\n      add\n      0x20\n      dup1\n      swap2\n      div\n      mul\n      0x20\n      add\n      mload(0x40)\n      swap1\n      dup2\n      add\n      0x40\n      mstore\n      dup1\n      swap3\n      swap2\n      swap1\n      dup2\n      dup2\n      mstore\n      0x20\n      add\n      dup3\n      dup1\n      sload\n      tag_21\n      swap1\n      tag_20\n      jump\t// in\n    tag_21:\n      dup1\n      iszero\n      tag_22\n      jumpi\n      dup1\n      0x1f\n      lt\n      tag_23\n      jumpi\n      0x0100\n      dup1\n      dup4\n      sload\n      div\n      mul\n      dup4\n      mstore\n      swap2\n      0x20\n      add\n      swap2\n      jump(tag_22)\n    tag_23:\n      dup3\n      add\n      swap2\n      swap1\n      0x00\n      mstore\n      keccak256(0x00, 0x20)\n      swap1\n    tag_24:\n      dup2\n      sload\n      dup2\n      mstore\n      swap1\n      0x01\n      add\n      swap1\n      0x20\n      add\n      dup1\n      dup4\n      gt\n      tag_24\n      jumpi\n      dup3\n      swap1\n      sub\n      0x1f\n      and\n      dup3\n      add\n      swap2\n    tag_22:\n      pop\n      pop\n      pop\n      pop\n      pop\n      dup2\n      jump\t// out\n        /* \"If_else.sol\":554:705  function shorthand(uint256 _num) public returns(string memory) {... */\n    tag_13:\n        /* \"If_else.sol\":602:615  string memory */\n      0x60\n        /* \"If_else.sol\":643:644  5 */\n      0x05\n        /* \"If_else.sol\":635:639  _num */\n      dup3\n        /* \"If_else.sol\":635:644  _num == 5 */\n      eq\n        /* \"If_else.sol\":635:697  _num == 5 ? myString = \"True Value\" : myString = \"False Value\" */\n      tag_26\n      jumpi\n        /* \"If_else.sol\":673:697  myString = \"False Value\" */\n      mload(0x40)\n      dup1\n      0x40\n      add\n      0x40\n      mstore\n      dup1\n      0x0b\n      dup2\n      mstore\n      0x20\n      add\n      0x46616c73652056616c7565000000000000000000000000000000000000000000\n      dup2\n      mstore\n      pop\n        /* \"If_else.sol\":673:681  myString */\n      0x01\n        /* \"If_else.sol\":673:697  myString = \"False Value\" */\n      swap1\n      dup2\n      tag_27\n      swap2\n      swap1\n      tag_28\n      jump\t// in\n    tag_27:\n        /* \"If_else.sol\":635:697  _num == 5 ? myString = \"True Value\" : myString = \"False Value\" */\n      jump(tag_29)\n    tag_26:\n        /* \"If_else.sol\":647:670  myString = \"True Value\" */\n      mload(0x40)\n      dup1\n      0x40\n      add\n      0x40\n      mstore\n      dup1\n      0x0a\n      dup2\n      mstore\n      0x20\n      add\n      0x547275652056616c756500000000000000000000000000000000000000000000\n      dup2\n      mstore\n      pop\n        /* \"If_else.sol\":647:655  myString */\n      0x01\n        /* \"If_else.sol\":647:670  myString = \"True Value\" */\n      swap1\n      dup2\n      tag_30\n      swap2\n      swap1\n      tag_28\n      jump\t// in\n    tag_30:\n        /* \"If_else.sol\":635:697  _num == 5 ? myString = \"True Value\" : myString = \"False Value\" */\n    tag_29:\n        /* \"If_else.sol\":628:697  return _num == 5 ? myString = \"True Value\" : myString = \"False Value\" */\n      dup1\n      sload\n      tag_31\n      swap1\n      tag_20\n      jump\t// in\n    tag_31:\n      dup1\n      0x1f\n      add\n      0x20\n      dup1\n      swap2\n      div\n      mul\n      0x20\n      add\n      mload(0x40)\n      swap1\n      dup2\n      add\n      0x40\n      mstore\n      dup1\n      swap3\n      swap2\n      swap1\n      dup2\n      dup2\n      mstore\n      0x20\n      add\n      dup3\n      dup1\n      sload\n      tag_32\n      swap1\n      tag_20\n      jump\t// in\n    tag_32:\n      dup1\n      iszero\n      tag_33\n      jumpi\n      dup1\n      0x1f\n      lt\n      tag_34\n      jumpi\n      0x0100\n      dup1\n      dup4\n      sload\n      div\n      mul\n      dup4\n      mstore\n      swap2\n      0x20\n      add\n      swap2\n      jump(tag_33)\n    tag_34:\n      dup3\n      add\n      swap2\n      swap1\n      0x00\n      mstore\n      keccak256(0x00, 0x20)\n      swap1\n    tag_35:\n      dup2\n      sload\n      dup2\n      mstore\n      swap1\n      0x01\n      add\n      swap1\n      0x20\n      add\n      dup1\n      dup4\n      gt\n      tag_35\n      jumpi\n      dup3\n      swap1\n      sub\n      0x1f\n      and\n      dup3\n      add\n      swap2\n    tag_33:\n      pop\n      pop\n      pop\n      pop\n      pop\n      swap1\n      pop\n        /* \"If_else.sol\":554:705  function shorthand(uint256 _num) public returns(string memory) {... */\n      swap2\n      swap1\n      pop\n      jump\t// out\n        /* \"If_else.sol\":87:110  int256 public myNum = 5 */\n    tag_16:\n      sload(0x00)\n      dup2\n      jump\t// out\n        /* \"#utility.yul\":7:106   */\n    tag_36:\n        /* \"#utility.yul\":59:65   */\n      0x00\n        /* \"#utility.yul\":93:98   */\n      dup2\n        /* \"#utility.yul\":87:99   */\n      mload\n        /* \"#utility.yul\":77:99   */\n      swap1\n      pop\n        /* \"#utility.yul\":7:106   */\n      swap2\n      swap1\n      pop\n      jump\t// out\n        /* \"#utility.yul\":112:281   */\n    tag_37:\n        /* \"#utility.yul\":196:207   */\n      0x00\n        /* \"#utility.yul\":230:236   */\n      dup3\n        /* \"#utility.yul\":225:228   */\n      dup3\n        /* \"#utility.yul\":218:237   */\n      mstore\n        /* \"#utility.yul\":270:274   */\n      0x20\n        /* \"#utility.yul\":265:268   */\n      dup3\n        /* \"#utility.yul\":261:275   */\n      add\n        /* \"#utility.yul\":246:275   */\n      swap1\n      pop\n        /* \"#utility.yul\":112:281   */\n      swap3\n      swap2\n      pop\n      pop\n      jump\t// out\n        /* \"#utility.yul\":287:533   */\n    tag_38:\n        /* \"#utility.yul\":368:369   */\n      0x00\n        /* \"#utility.yul\":378:491   */\n    tag_70:\n        /* \"#utility.yul\":392:398   */\n      dup4\n        /* \"#utility.yul\":389:390   */\n      dup2\n        /* \"#utility.yul\":386:399   */\n      lt\n        /* \"#utility.yul\":378:491   */\n      iszero\n      tag_72\n      jumpi\n        /* \"#utility.yul\":477:478   */\n      dup1\n        /* \"#utility.yul\":472:475   */\n      dup3\n        /* \"#utility.yul\":468:479   */\n      add\n        /* \"#utility.yul\":462:480   */\n      mload\n        /* \"#utility.yul\":458:459   */\n      dup2\n        /* \"#utility.yul\":453:456   */\n      dup5\n        /* \"#utility.yul\":449:460   */\n      add\n        /* \"#utility.yul\":442:481   */\n      mstore\n        /* \"#utility.yul\":414:416   */\n      0x20\n        /* \"#utility.yul\":411:412   */\n      dup2\n        /* \"#utility.yul\":407:417   */\n      add\n        /* \"#utility.yul\":402:417   */\n      swap1\n      pop\n        /* \"#utility.yul\":378:491   */\n      jump(tag_70)\n    tag_72:\n        /* \"#utility.yul\":525:526   */\n      0x00\n        /* \"#utility.yul\":516:522   */\n      dup5\n        /* \"#utility.yul\":511:514   */\n      dup5\n        /* \"#utility.yul\":507:523   */\n      add\n        /* \"#utility.yul\":500:527   */\n      mstore\n        /* \"#utility.yul\":349:533   */\n      pop\n        /* \"#utility.yul\":287:533   */\n      pop\n      pop\n      pop\n      jump\t// out\n        /* \"#utility.yul\":539:641   */\n    tag_39:\n        /* \"#utility.yul\":580:586   */\n      0x00\n        /* \"#utility.yul\":631:633   */\n      0x1f\n        /* \"#utility.yul\":627:634   */\n      not\n        /* \"#utility.yul\":622:624   */\n      0x1f\n        /* \"#utility.yul\":615:620   */\n      dup4\n        /* \"#utility.yul\":611:625   */\n      add\n        /* \"#utility.yul\":607:635   */\n      and\n        /* \"#utility.yul\":597:635   */\n      swap1\n      pop\n        /* \"#utility.yul\":539:641   */\n      swap2\n      swap1\n      pop\n      jump\t// out\n        /* \"#utility.yul\":647:1024   */\n    tag_40:\n        /* \"#utility.yul\":735:738   */\n      0x00\n        /* \"#utility.yul\":763:802   */\n      tag_75\n        /* \"#utility.yul\":796:801   */\n      dup3\n        /* \"#utility.yul\":763:802   */\n      tag_36\n      jump\t// in\n    tag_75:\n        /* \"#utility.yul\":818:889   */\n      tag_76\n        /* \"#utility.yul\":882:888   */\n      dup2\n        /* \"#utility.yul\":877:880   */\n      dup6\n        /* \"#utility.yul\":818:889   */\n      tag_37\n      jump\t// in\n    tag_76:\n        /* \"#utility.yul\":811:889   */\n      swap4\n      pop\n        /* \"#utility.yul\":898:963   */\n      tag_77\n        /* \"#utility.yul\":956:962   */\n      dup2\n        /* \"#utility.yul\":951:954   */\n      dup6\n        /* \"#utility.yul\":944:948   */\n      0x20\n        /* \"#utility.yul\":937:942   */\n      dup7\n        /* \"#utility.yul\":933:949   */\n      add\n        /* \"#utility.yul\":898:963   */\n      tag_38\n      jump\t// in\n    tag_77:\n        /* \"#utility.yul\":988:1017   */\n      tag_78\n        /* \"#utility.yul\":1010:1016   */\n      dup2\n        /* \"#utility.yul\":988:1017   */\n      tag_39\n      jump\t// in\n    tag_78:\n        /* \"#utility.yul\":983:986   */\n      dup5\n        /* \"#utility.yul\":979:1018   */\n      add\n        /* \"#utility.yul\":972:1018   */\n      swap2\n      pop\n        /* \"#utility.yul\":739:1024   */\n      pop\n        /* \"#utility.yul\":647:1024   */\n      swap3\n      swap2\n      pop\n      pop\n      jump\t// out\n        /* \"#utility.yul\":1030:1343   */\n    tag_9:\n        /* \"#utility.yul\":1143:1147   */\n      0x00\n        /* \"#utility.yul\":1181:1183   */\n      0x20\n        /* \"#utility.yul\":1170:1179   */\n      dup3\n        /* \"#utility.yul\":1166:1184   */\n      add\n        /* \"#utility.yul\":1158:1184   */\n      swap1\n      pop\n        /* \"#utility.yul\":1230:1239   */\n      dup2\n        /* \"#utility.yul\":1224:1228   */\n      dup2\n        /* \"#utility.yul\":1220:1240   */\n      sub\n        /* \"#utility.yul\":1216:1217   */\n      0x00\n        /* \"#utility.yul\":1205:1214   */\n      dup4\n        /* \"#utility.yul\":1201:1218   */\n      add\n        /* \"#utility.yul\":1194:1241   */\n      mstore\n        /* \"#utility.yul\":1258:1336   */\n      tag_80\n        /* \"#utility.yul\":1331:1335   */\n      dup2\n        /* \"#utility.yul\":1322:1328   */\n      dup5\n        /* \"#utility.yul\":1258:1336   */\n      tag_40\n      jump\t// in\n    tag_80:\n        /* \"#utility.yul\":1250:1336   */\n      swap1\n      pop\n        /* \"#utility.yul\":1030:1343   */\n      swap3\n      swap2\n      pop\n      pop\n      jump\t// out\n        /* \"#utility.yul\":1430:1547   */\n    tag_42:\n        /* \"#utility.yul\":1539:1540   */\n      0x00\n        /* \"#utility.yul\":1536:1537   */\n      dup1\n        /* \"#utility.yul\":1529:1541   */\n      revert\n        /* \"#utility.yul\":1676:1753   */\n    tag_44:\n        /* \"#utility.yul\":1713:1720   */\n      0x00\n        /* \"#utility.yul\":1742:1747   */\n      dup2\n        /* \"#utility.yul\":1731:1747   */\n      swap1\n      pop\n        /* \"#utility.yul\":1676:1753   */\n      swap2\n      swap1\n      pop\n      jump\t// out\n        /* \"#utility.yul\":1759:1881   */\n    tag_45:\n        /* \"#utility.yul\":1832:1856   */\n      tag_86\n        /* \"#utility.yul\":1850:1855   */\n      dup2\n        /* \"#utility.yul\":1832:1856   */\n      tag_44\n      jump\t// in\n    tag_86:\n        /* \"#utility.yul\":1825:1830   */\n      dup2\n        /* \"#utility.yul\":1822:1857   */\n      eq\n        /* \"#utility.yul\":1812:1875   */\n      tag_87\n      jumpi\n        /* \"#utility.yul\":1871:1872   */\n      0x00\n        /* \"#utility.yul\":1868:1869   */\n      dup1\n        /* \"#utility.yul\":1861:1873   */\n      revert\n        /* \"#utility.yul\":1812:1875   */\n    tag_87:\n        /* \"#utility.yul\":1759:1881   */\n      pop\n      jump\t// out\n        /* \"#utility.yul\":1887:2026   */\n    tag_46:\n        /* \"#utility.yul\":1933:1938   */\n      0x00\n        /* \"#utility.yul\":1971:1977   */\n      dup2\n        /* \"#utility.yul\":1958:1978   */\n      calldataload\n        /* \"#utility.yul\":1949:1978   */\n      swap1\n      pop\n        /* \"#utility.yul\":1987:2020   */\n      tag_89\n        /* \"#utility.yul\":2014:2019   */\n      dup2\n        /* \"#utility.yul\":1987:2020   */\n      tag_45\n      jump\t// in\n    tag_89:\n        /* \"#utility.yul\":1887:2026   */\n      swap3\n      swap2\n      pop\n      pop\n      jump\t// out\n        /* \"#utility.yul\":2032:2361   */\n    tag_12:\n        /* \"#utility.yul\":2091:2097   */\n      0x00\n        /* \"#utility.yul\":2140:2142   */\n      0x20\n        /* \"#utility.yul\":2128:2137   */\n      dup3\n        /* \"#utility.yul\":2119:2126   */\n      dup5\n        /* \"#utility.yul\":2115:2138   */\n      sub\n        /* \"#utility.yul\":2111:2143   */\n      slt\n        /* \"#utility.yul\":2108:2227   */\n      iszero\n      tag_91\n      jumpi\n        /* \"#utility.yul\":2146:2225   */\n      tag_92\n      tag_42\n      jump\t// in\n    tag_92:\n        /* \"#utility.yul\":2108:2227   */\n    tag_91:\n        /* \"#utility.yul\":2266:2267   */\n      0x00\n        /* \"#utility.yul\":2291:2344   */\n      tag_93\n        /* \"#utility.yul\":2336:2343   */\n      dup5\n        /* \"#utility.yul\":2327:2333   */\n      dup3\n        /* \"#utility.yul\":2316:2325   */\n      dup6\n        /* \"#utility.yul\":2312:2334   */\n      add\n        /* \"#utility.yul\":2291:2344   */\n      tag_46\n      jump\t// in\n    tag_93:\n        /* \"#utility.yul\":2281:2344   */\n      swap2\n      pop\n        /* \"#utility.yul\":2237:2354   */\n      pop\n        /* \"#utility.yul\":2032:2361   */\n      swap3\n      swap2\n      pop\n      pop\n      jump\t// out\n        /* \"#utility.yul\":2367:2443   */\n    tag_47:\n        /* \"#utility.yul\":2403:2410   */\n      0x00\n        /* \"#utility.yul\":2432:2437   */\n      dup2\n        /* \"#utility.yul\":2421:2437   */\n      swap1\n      pop\n        /* \"#utility.yul\":2367:2443   */\n      swap2\n      swap1\n      pop\n      jump\t// out\n        /* \"#utility.yul\":2449:2564   */\n    tag_48:\n        /* \"#utility.yul\":2534:2557   */\n      tag_96\n        /* \"#utility.yul\":2551:2556   */\n      dup2\n        /* \"#utility.yul\":2534:2557   */\n      tag_47\n      jump\t// in\n    tag_96:\n        /* \"#utility.yul\":2529:2532   */\n      dup3\n        /* \"#utility.yul\":2522:2558   */\n      mstore\n        /* \"#utility.yul\":2449:2564   */\n      pop\n      pop\n      jump\t// out\n        /* \"#utility.yul\":2570:2788   */\n    tag_18:\n        /* \"#utility.yul\":2661:2665   */\n      0x00\n        /* \"#utility.yul\":2699:2701   */\n      0x20\n        /* \"#utility.yul\":2688:2697   */\n      dup3\n        /* \"#utility.yul\":2684:2702   */\n      add\n        /* \"#utility.yul\":2676:2702   */\n      swap1\n      pop\n        /* \"#utility.yul\":2712:2781   */\n      tag_98\n        /* \"#utility.yul\":2778:2779   */\n      0x00\n        /* \"#utility.yul\":2767:2776   */\n      dup4\n        /* \"#utility.yul\":2763:2780   */\n      add\n        /* \"#utility.yul\":2754:2760   */\n      dup5\n        /* \"#utility.yul\":2712:2781   */\n      tag_48\n      jump\t// in\n    tag_98:\n        /* \"#utility.yul\":2570:2788   */\n      swap3\n      swap2\n      pop\n      pop\n      jump\t// out\n        /* \"#utility.yul\":2794:2974   */\n    tag_49:\n        /* \"#utility.yul\":2842:2919   */\n      0x4e487b7100000000000000000000000000000000000000000000000000000000\n        /* \"#utility.yul\":2839:2840   */\n      0x00\n        /* \"#utility.yul\":2832:2920   */\n      mstore\n        /* \"#utility.yul\":2939:2943   */\n      0x22\n        /* \"#utility.yul\":2936:2937   */\n      0x04\n        /* \"#utility.yul\":2929:2944   */\n      mstore\n        /* \"#utility.yul\":2963:2967   */\n      0x24\n        /* \"#utility.yul\":2960:2961   */\n      0x00\n        /* \"#utility.yul\":2953:2968   */\n      revert\n        /* \"#utility.yul\":2980:3300   */\n    tag_20:\n        /* \"#utility.yul\":3024:3030   */\n      0x00\n        /* \"#utility.yul\":3061:3062   */\n      0x02\n        /* \"#utility.yul\":3055:3059   */\n      dup3\n        /* \"#utility.yul\":3051:3063   */\n      div\n        /* \"#utility.yul\":3041:3063   */\n      swap1\n      pop\n        /* \"#utility.yul\":3108:3109   */\n      0x01\n        /* \"#utility.yul\":3102:3106   */\n      dup3\n        /* \"#utility.yul\":3098:3110   */\n      and\n        /* \"#utility.yul\":3129:3147   */\n      dup1\n        /* \"#utility.yul\":3119:3200   */\n      tag_101\n      jumpi\n        /* \"#utility.yul\":3185:3189   */\n      0x7f\n        /* \"#utility.yul\":3177:3183   */\n      dup3\n        /* \"#utility.yul\":3173:3190   */\n      and\n        /* \"#utility.yul\":3163:3190   */\n      swap2\n      pop\n        /* \"#utility.yul\":3119:3200   */\n    tag_101:\n        /* \"#utility.yul\":3247:3249   */\n      0x20\n        /* \"#utility.yul\":3239:3245   */\n      dup3\n        /* \"#utility.yul\":3236:3250   */\n      lt\n        /* \"#utility.yul\":3216:3234   */\n      dup2\n        /* \"#utility.yul\":3213:3251   */\n      sub\n        /* \"#utility.yul\":3210:3294   */\n      tag_102\n      jumpi\n        /* \"#utility.yul\":3266:3284   */\n      tag_103\n      tag_49\n      jump\t// in\n    tag_103:\n        /* \"#utility.yul\":3210:3294   */\n    tag_102:\n        /* \"#utility.yul\":3031:3300   */\n      pop\n        /* \"#utility.yul\":2980:3300   */\n      swap2\n      swap1\n      pop\n      jump\t// out\n        /* \"#utility.yul\":3306:3486   */\n    tag_50:\n        /* \"#utility.yul\":3354:3431   */\n      0x4e487b7100000000000000000000000000000000000000000000000000000000\n        /* \"#utility.yul\":3351:3352   */\n      0x00\n        /* \"#utility.yul\":3344:3432   */\n      mstore\n        /* \"#utility.yul\":3451:3455   */\n      0x41\n        /* \"#utility.yul\":3448:3449   */\n      0x04\n        /* \"#utility.yul\":3441:3456   */\n      mstore\n        /* \"#utility.yul\":3475:3479   */\n      0x24\n        /* \"#utility.yul\":3472:3473   */\n      0x00\n        /* \"#utility.yul\":3465:3480   */\n      revert\n        /* \"#utility.yul\":3492:3633   */\n    tag_51:\n        /* \"#utility.yul\":3541:3545   */\n      0x00\n        /* \"#utility.yul\":3564:3567   */\n      dup2\n        /* \"#utility.yul\":3556:3567   */\n      swap1\n      pop\n        /* \"#utility.yul\":3587:3590   */\n      dup2\n        /* \"#utility.yul\":3584:3585   */\n      0x00\n        /* \"#utility.yul\":3577:3591   */\n      mstore\n        /* \"#utility.yul\":3621:3625   */\n      0x20\n        /* \"#utility.yul\":3618:3619   */\n      0x00\n        /* \"#utility.yul\":3608:3626   */\n      keccak256\n        /* \"#utility.yul\":3600:3626   */\n      swap1\n      pop\n        /* \"#utility.yul\":3492:3633   */\n      swap2\n      swap1\n      pop\n      jump\t// out\n        /* \"#utility.yul\":3639:3732   */\n    tag_52:\n        /* \"#utility.yul\":3676:3682   */\n      0x00\n        /* \"#utility.yul\":3723:3725   */\n      0x20\n        /* \"#utility.yul\":3718:3720   */\n      0x1f\n        /* \"#utility.yul\":3711:3716   */\n      dup4\n        /* \"#utility.yul\":3707:3721   */\n      add\n        /* \"#utility.yul\":3703:3726   */\n      div\n        /* \"#utility.yul\":3693:3726   */\n      swap1\n      pop\n        /* \"#utility.yul\":3639:3732   */\n      swap2\n      swap1\n      pop\n      jump\t// out\n        /* \"#utility.yul\":3738:3845   */\n    tag_53:\n        /* \"#utility.yul\":3782:3790   */\n      0x00\n        /* \"#utility.yul\":3832:3837   */\n      dup3\n        /* \"#utility.yul\":3826:3830   */\n      dup3\n        /* \"#utility.yul\":3822:3838   */\n      shl\n        /* \"#utility.yul\":3801:3838   */\n      swap1\n      pop\n        /* \"#utility.yul\":3738:3845   */\n      swap3\n      swap2\n      pop\n      pop\n      jump\t// out\n        /* \"#utility.yul\":3851:4244   */\n    tag_54:\n        /* \"#utility.yul\":3920:3926   */\n      0x00\n        /* \"#utility.yul\":3970:3971   */\n      0x08\n        /* \"#utility.yul\":3958:3968   */\n      dup4\n        /* \"#utility.yul\":3954:3972   */\n      mul\n        /* \"#utility.yul\":3993:4090   */\n      tag_109\n        /* \"#utility.yul\":4023:4089   */\n      0xffffffffffffffffffffffffffffffffffffffffffffffffffffffffffffffff\n        /* \"#utility.yul\":4012:4021   */\n      dup3\n        /* \"#utility.yul\":3993:4090   */\n      tag_53\n      jump\t// in\n    tag_109:\n        /* \"#utility.yul\":4111:4150   */\n      tag_110\n        /* \"#utility.yul\":4141:4149   */\n      dup7\n        /* \"#utility.yul\":4130:4139   */\n      dup4\n        /* \"#utility.yul\":4111:4150   */\n      tag_53\n      jump\t// in\n    tag_110:\n        /* \"#utility.yul\":4099:4150   */\n      swap6\n      pop\n        /* \"#utility.yul\":4183:4187   */\n      dup1\n        /* \"#utility.yul\":4179:4188   */\n      not\n        /* \"#utility.yul\":4172:4177   */\n      dup5\n        /* \"#utility.yul\":4168:4189   */\n      and\n        /* \"#utility.yul\":4159:4189   */\n      swap4\n      pop\n        /* \"#utility.yul\":4232:4236   */\n      dup1\n        /* \"#utility.yul\":4222:4230   */\n      dup7\n        /* \"#utility.yul\":4218:4237   */\n      and\n        /* \"#utility.yul\":4211:4216   */\n      dup5\n        /* \"#utility.yul\":4208:4238   */\n      or\n        /* \"#utility.yul\":4198:4238   */\n      swap3\n      pop\n        /* \"#utility.yul\":3927:4244   */\n      pop\n      pop\n        /* \"#utility.yul\":3851:4244   */\n      swap4\n      swap3\n      pop\n      pop\n      pop\n      jump\t// out\n        /* \"#utility.yul\":4250:4310   */\n    tag_55:\n        /* \"#utility.yul\":4278:4281   */\n      0x00\n        /* \"#utility.yul\":4299:4304   */\n      dup2\n        /* \"#utility.yul\":4292:4304   */\n      swap1\n      pop\n        /* \"#utility.yul\":4250:4310   */\n      swap2\n      swap1\n      pop\n      jump\t// out\n        /* \"#utility.yul\":4316:4458   */\n    tag_56:\n        /* \"#utility.yul\":4366:4375   */\n      0x00\n        /* \"#utility.yul\":4399:4452   */\n      tag_113\n        /* \"#utility.yul\":4417:4451   */\n      tag_114\n        /* \"#utility.yul\":4426:4450   */\n      tag_115\n        /* \"#utility.yul\":4444:4449   */\n      dup5\n        /* \"#utility.yul\":4426:4450   */\n      tag_44\n      jump\t// in\n    tag_115:\n        /* \"#utility.yul\":4417:4451   */\n      tag_55\n      jump\t// in\n    tag_114:\n        /* \"#utility.yul\":4399:4452   */\n      tag_44\n      jump\t// in\n    tag_113:\n        /* \"#utility.yul\":4386:4452   */\n      swap1\n      pop\n        /* \"#utility.yul\":4316:4458   */\n      swap2\n      swap1\n      pop\n      jump\t// out\n        /* \"#utility.yul\":4464:4539   */\n    tag_57:\n        /* \"#utility.yul\":4507:4510   */\n      0x00\n        /* \"#utility.yul\":4528:4533   */\n      dup2\n        /* \"#utility.yul\":4521:4533   */\n      swap1\n      pop\n        /* \"#utility.yul\":4464:4539   */\n      swap2\n      swap1\n      pop\n      jump\t// out\n        /* \"#utility.yul\":4545:4814   */\n    tag_58:\n        /* \"#utility.yul\":4655:4694   */\n      tag_118\n        /* \"#utility.yul\":4686:4693   */\n      dup4\n        /* \"#utility.yul\":4655:4694   */\n      tag_56\n      jump\t// in\n    tag_118:\n        /* \"#utility.yul\":4716:4807   */\n      tag_119\n        /* \"#utility.yul\":4765:4806   */\n      tag_120\n        /* \"#utility.yul\":4789:4805   */\n      dup3\n        /* \"#utility.yul\":4765:4806   */\n      tag_57\n      jump\t// in\n    tag_120:\n        /* \"#utility.yul\":4757:4763   */\n      dup5\n        /* \"#utility.yul\":4750:4754   */\n      dup5\n        /* \"#utility.yul\":4744:4755   */\n      sload\n        /* \"#utility.yul\":4716:4807   */\n      tag_54\n      jump\t// in\n    tag_119:\n        /* \"#utility.yul\":4710:4714   */\n      dup3\n        /* \"#utility.yul\":4703:4808   */\n      sstore\n        /* \"#utility.yul\":4621:4814   */\n      pop\n        /* \"#utility.yul\":4545:4814   */\n      pop\n      pop\n      pop\n      jump\t// out\n        /* \"#utility.yul\":4820:4893   */\n    tag_59:\n        /* \"#utility.yul\":4865:4868   */\n      0x00\n        /* \"#utility.yul\":4820:4893   */\n      swap1\n      jump\t// out\n        /* \"#utility.yul\":4899:5088   */\n    tag_60:\n        /* \"#utility.yul\":4976:5008   */\n      tag_123\n      tag_59\n      jump\t// in\n    tag_123:\n        /* \"#utility.yul\":5017:5082   */\n      tag_124\n        /* \"#utility.yul\":5075:5081   */\n      dup2\n        /* \"#utility.yul\":5067:5073   */\n      dup5\n        /* \"#utility.yul\":5061:5065   */\n      dup5\n        /* \"#utility.yul\":5017:5082   */\n      tag_58\n      jump\t// in\n    tag_124:\n        /* \"#utility.yul\":4952:5088   */\n      pop\n        /* \"#utility.yul\":4899:5088   */\n      pop\n      pop\n      jump\t// out\n        /* \"#utility.yul\":5094:5280   */\n    tag_61:\n        /* \"#utility.yul\":5154:5274   */\n    tag_126:\n        /* \"#utility.yul\":5171:5174   */\n      dup2\n        /* \"#utility.yul\":5164:5169   */\n      dup2\n        /* \"#utility.yul\":5161:5175   */\n      lt\n        /* \"#utility.yul\":5154:5274   */\n      iszero\n      tag_128\n      jumpi\n        /* \"#utility.yul\":5225:5264   */\n      tag_129\n        /* \"#utility.yul\":5262:5263   */\n      0x00\n        /* \"#utility.yul\":5255:5260   */\n      dup3\n        /* \"#utility.yul\":5225:5264   */\n      tag_60\n      jump\t// in\n    tag_129:\n        /* \"#utility.yul\":5198:5199   */\n      0x01\n        /* \"#utility.yul\":5191:5196   */\n      dup2\n        /* \"#utility.yul\":5187:5200   */\n      add\n        /* \"#utility.yul\":5178:5200   */\n      swap1\n      pop\n        /* \"#utility.yul\":5154:5274   */\n      jump(tag_126)\n    tag_128:\n        /* \"#utility.yul\":5094:5280   */\n      pop\n      pop\n      jump\t// out\n        /* \"#utility.yul\":5286:5829   */\n    tag_62:\n        /* \"#utility.yul\":5387:5389   */\n      0x1f\n        /* \"#utility.yul\":5382:5385   */\n      dup3\n        /* \"#utility.yul\":5379:5390   */\n      gt\n        /* \"#utility.yul\":5376:5822   */\n      iszero\n      tag_131\n      jumpi\n        /* \"#utility.yul\":5421:5459   */\n      tag_132\n        /* \"#utility.yul\":5453:5458   */\n      dup2\n        /* \"#utility.yul\":5421:5459   */\n      tag_51\n      jump\t// in\n    tag_132:\n        /* \"#utility.yul\":5505:5534   */\n      tag_133\n        /* \"#utility.yul\":5523:5533   */\n      dup5\n        /* \"#utility.yul\":5505:5534   */\n      tag_52\n      jump\t// in\n    tag_133:\n        /* \"#utility.yul\":5495:5503   */\n      dup2\n        /* \"#utility.yul\":5491:5535   */\n      add\n        /* \"#utility.yul\":5688:5690   */\n      0x20\n        /* \"#utility.yul\":5676:5686   */\n      dup6\n        /* \"#utility.yul\":5673:5691   */\n      lt\n        /* \"#utility.yul\":5670:5719   */\n      iszero\n      tag_134\n      jumpi\n        /* \"#utility.yul\":5709:5717   */\n      dup2\n        /* \"#utility.yul\":5694:5717   */\n      swap1\n      pop\n        /* \"#utility.yul\":5670:5719   */\n    tag_134:\n        /* \"#utility.yul\":5732:5812   */\n      tag_135\n        /* \"#utility.yul\":5788:5810   */\n      tag_136\n        /* \"#utility.yul\":5806:5809   */\n      dup6\n        /* \"#utility.yul\":5788:5810   */\n      tag_52\n      jump\t// in\n    tag_136:\n        /* \"#utility.yul\":5778:5786   */\n      dup4\n        /* \"#utility.yul\":5774:5811   */\n      add\n        /* \"#utility.yul\":5761:5772   */\n      dup3\n        /* \"#utility.yul\":5732:5812   */\n      tag_61\n      jump\t// in\n    tag_135:\n        /* \"#utility.yul\":5391:5822   */\n      pop\n      pop\n        /* \"#utility.yul\":5376:5822   */\n    tag_131:\n        /* \"#utility.yul\":5286:5829   */\n      pop\n      pop\n      pop\n      jump\t// out\n        /* \"#utility.yul\":5835:5952   */\n    tag_63:\n        /* \"#utility.yul\":5889:5897   */\n      0x00\n        /* \"#utility.yul\":5939:5944   */\n      dup3\n        /* \"#utility.yul\":5933:5937   */\n      dup3\n        /* \"#utility.yul\":5929:5945   */\n      shr\n        /* \"#utility.yul\":5908:5945   */\n      swap1\n      pop\n        /* \"#utility.yul\":5835:5952   */\n      swap3\n      swap2\n      pop\n      pop\n      jump\t// out\n        /* \"#utility.yul\":5958:6127   */\n    tag_64:\n        /* \"#utility.yul\":6002:6008   */\n      0x00\n        /* \"#utility.yul\":6035:6086   */\n      tag_139\n        /* \"#utility.yul\":6083:6084   */\n      0x00\n        /* \"#utility.yul\":6079:6085   */\n      not\n        /* \"#utility.yul\":6071:6076   */\n      dup5\n        /* \"#utility.yul\":6068:6069   */\n      0x08\n        /* \"#utility.yul\":6064:6077   */\n      mul\n        /* \"#utility.yul\":6035:6086   */\n      tag_63\n      jump\t// in\n    tag_139:\n        /* \"#utility.yul\":6031:6087   */\n      not\n        /* \"#utility.yul\":6116:6120   */\n      dup1\n        /* \"#utility.yul\":6110:6114   */\n      dup4\n        /* \"#utility.yul\":6106:6121   */\n      and\n        /* \"#utility.yul\":6096:6121   */\n      swap2\n      pop\n        /* \"#utility.yul\":6009:6127   */\n      pop\n        /* \"#utility.yul\":5958:6127   */\n      swap3\n      swap2\n      pop\n      pop\n      jump\t// out\n        /* \"#utility.yul\":6132:6427   */\n    tag_65:\n        /* \"#utility.yul\":6208:6212   */\n      0x00\n        /* \"#utility.yul\":6354:6383   */\n      tag_141\n        /* \"#utility.yul\":6379:6382   */\n      dup4\n        /* \"#utility.yul\":6373:6377   */\n      dup4\n        /* \"#utility.yul\":6354:6383   */\n      tag_64\n      jump\t// in\n    tag_141:\n        /* \"#utility.yul\":6346:6383   */\n      swap2\n      pop\n        /* \"#utility.yul\":6416:6419   */\n      dup3\n        /* \"#utility.yul\":6413:6414   */\n      0x02\n        /* \"#utility.yul\":6409:6420   */\n      mul\n        /* \"#utility.yul\":6403:6407   */\n      dup3\n        /* \"#utility.yul\":6400:6421   */\n      or\n        /* \"#utility.yul\":6392:6421   */\n      swap1\n      pop\n        /* \"#utility.yul\":6132:6427   */\n      swap3\n      swap2\n      pop\n      pop\n      jump\t// out\n        /* \"#utility.yul\":6432:7827   */\n    tag_28:\n        /* \"#utility.yul\":6549:6586   */\n      tag_143\n        /* \"#utility.yul\":6582:6585   */\n      dup3\n        /* \"#utility.yul\":6549:6586   */\n      tag_36\n      jump\t// in\n    tag_143:\n        /* \"#utility.yul\":6651:6669   */\n      0xffffffffffffffff\n        /* \"#utility.yul\":6643:6649   */\n      dup2\n        /* \"#utility.yul\":6640:6670   */\n      gt\n        /* \"#utility.yul\":6637:6693   */\n      iszero\n      tag_144\n      jumpi\n        /* \"#utility.yul\":6673:6691   */\n      tag_145\n      tag_50\n      jump\t// in\n    tag_145:\n        /* \"#utility.yul\":6637:6693   */\n    tag_144:\n        /* \"#utility.yul\":6717:6755   */\n      tag_146\n        /* \"#utility.yul\":6749:6753   */\n      dup3\n        /* \"#utility.yul\":6743:6754   */\n      sload\n        /* \"#utility.yul\":6717:6755   */\n      tag_20\n      jump\t// in\n    tag_146:\n        /* \"#utility.yul\":6802:6869   */\n      tag_147\n        /* \"#utility.yul\":6862:6868   */\n      dup3\n        /* \"#utility.yul\":6854:6860   */\n      dup3\n        /* \"#utility.yul\":6848:6852   */\n      dup6\n        /* \"#utility.yul\":6802:6869   */\n      tag_62\n      jump\t// in\n    tag_147:\n        /* \"#utility.yul\":6896:6897   */\n      0x00\n        /* \"#utility.yul\":6920:6924   */\n      0x20\n        /* \"#utility.yul\":6907:6924   */\n      swap1\n      pop\n        /* \"#utility.yul\":6952:6954   */\n      0x1f\n        /* \"#utility.yul\":6944:6950   */\n      dup4\n        /* \"#utility.yul\":6941:6955   */\n      gt\n        /* \"#utility.yul\":6969:6970   */\n      0x01\n        /* \"#utility.yul\":6964:7582   */\n      dup2\n      eq\n      tag_149\n      jumpi\n        /* \"#utility.yul\":7626:7627   */\n      0x00\n        /* \"#utility.yul\":7643:7649   */\n      dup5\n        /* \"#utility.yul\":7640:7717   */\n      iszero\n      tag_150\n      jumpi\n        /* \"#utility.yul\":7692:7701   */\n      dup3\n        /* \"#utility.yul\":7687:7690   */\n      dup8\n        /* \"#utility.yul\":7683:7702   */\n      add\n        /* \"#utility.yul\":7677:7703   */\n      mload\n        /* \"#utility.yul\":7668:7703   */\n      swap1\n      pop\n        /* \"#utility.yul\":7640:7717   */\n    tag_150:\n        /* \"#utility.yul\":7743:7810   */\n      tag_151\n        /* \"#utility.yul\":7803:7809   */\n      dup6\n        /* \"#utility.yul\":7796:7801   */\n      dup3\n        /* \"#utility.yul\":7743:7810   */\n      tag_65\n      jump\t// in\n    tag_151:\n        /* \"#utility.yul\":7737:7741   */\n      dup7\n        /* \"#utility.yul\":7730:7811   */\n      sstore\n        /* \"#utility.yul\":7599:7821   */\n      pop\n        /* \"#utility.yul\":6934:7821   */\n      jump(tag_148)\n        /* \"#utility.yul\":6964:7582   */\n    tag_149:\n        /* \"#utility.yul\":7016:7020   */\n      0x1f\n        /* \"#utility.yul\":7012:7021   */\n      not\n        /* \"#utility.yul\":7004:7010   */\n      dup5\n        /* \"#utility.yul\":7000:7022   */\n      and\n        /* \"#utility.yul\":7050:7087   */\n      tag_152\n        /* \"#utility.yul\":7082:7086   */\n      dup7\n        /* \"#utility.yul\":7050:7087   */\n      tag_51\n      jump\t// in\n    tag_152:\n        /* \"#utility.yul\":7109:7110   */\n      0x00\n        /* \"#utility.yul\":7123:7331   */\n    tag_153:\n        /* \"#utility.yul\":7137:7144   */\n      dup3\n        /* \"#utility.yul\":7134:7135   */\n      dup2\n        /* \"#utility.yul\":7131:7145   */\n      lt\n        /* \"#utility.yul\":7123:7331   */\n      iszero\n      tag_155\n      jumpi\n        /* \"#utility.yul\":7216:7225   */\n      dup5\n        /* \"#utility.yul\":7211:7214   */\n      dup10\n        /* \"#utility.yul\":7207:7226   */\n      add\n        /* \"#utility.yul\":7201:7227   */\n      mload\n        /* \"#utility.yul\":7193:7199   */\n      dup3\n        /* \"#utility.yul\":7186:7228   */\n      sstore\n        /* \"#utility.yul\":7267:7268   */\n      0x01\n        /* \"#utility.yul\":7259:7265   */\n      dup3\n        /* \"#utility.yul\":7255:7269   */\n      add\n        /* \"#utility.yul\":7245:7269   */\n      swap2\n      pop\n        /* \"#utility.yul\":7314:7316   */\n      0x20\n        /* \"#utility.yul\":7303:7312   */\n      dup6\n        /* \"#utility.yul\":7299:7317   */\n      add\n        /* \"#utility.yul\":7286:7317   */\n      swap5\n      pop\n        /* \"#utility.yul\":7160:7164   */\n      0x20\n        /* \"#utility.yul\":7157:7158   */\n      dup2\n        /* \"#utility.yul\":7153:7165   */\n      add\n        /* \"#utility.yul\":7148:7165   */\n      swap1\n      pop\n        /* \"#utility.yul\":7123:7331   */\n      jump(tag_153)\n    tag_155:\n        /* \"#utility.yul\":7359:7365   */\n      dup7\n        /* \"#utility.yul\":7350:7357   */\n      dup4\n        /* \"#utility.yul\":7347:7366   */\n      lt\n        /* \"#utility.yul\":7344:7523   */\n      iszero\n      tag_156\n      jumpi\n        /* \"#utility.yul\":7417:7426   */\n      dup5\n        /* \"#utility.yul\":7412:7415   */\n      dup10\n        /* \"#utility.yul\":7408:7427   */\n      add\n        /* \"#utility.yul\":7402:7428   */\n      mload\n        /* \"#utility.yul\":7460:7508   */\n      tag_157\n        /* \"#utility.yul\":7502:7506   */\n      0x1f\n        /* \"#utility.yul\":7494:7500   */\n      dup10\n        /* \"#utility.yul\":7490:7507   */\n      and\n        /* \"#utility.yul\":7479:7488   */\n      dup3\n        /* \"#utility.yul\":7460:7508   */\n      tag_64\n      jump\t// in\n    tag_157:\n        /* \"#utility.yul\":7452:7458   */\n      dup4\n        /* \"#utility.yul\":7445:7509   */\n      sstore\n        /* \"#utility.yul\":7367:7523   */\n      pop\n        /* \"#utility.yul\":7344:7523   */\n    tag_156:\n        /* \"#utility.yul\":7569:7570   */\n      0x01\n        /* \"#utility.yul\":7565:7566   */\n      0x02\n        /* \"#utility.yul\":7557:7563   */\n      dup9\n        /* \"#utility.yul\":7553:7567   */\n      mul\n        /* \"#utility.yul\":7549:7571   */\n      add\n        /* \"#utility.yul\":7543:7547   */\n      dup9\n        /* \"#utility.yul\":7536:7572   */\n      sstore\n        /* \"#utility.yul\":6971:7582   */\n      pop\n      pop\n      pop\n        /* \"#utility.yul\":6934:7821   */\n    tag_148:\n      pop\n        /* \"#utility.yul\":6524:7827   */\n      pop\n      pop\n      pop\n        /* \"#utility.yul\":6432:7827   */\n      pop\n      pop\n      jump\t// out\n\n    auxdata: 0xa2646970667358221220a1a7f5dc9c621cc5a8892976cf13befd8fcfeb05defe728db6949679030968af64736f6c63430008180033\n}\n",
				"bytecode": {
					"linkReferences": {},
					"object": "608060405260055f556040518060400160405280600381526020017f4142430000000000000000000000000000000000000000000000000000000000815250600190816200004e9190620002c6565b503480156200005b575f80fd5b50620003aa565b5f81519050919050565b7f4e487b71000000000000000000000000000000000000000000000000000000005f52604160045260245ffd5b7f4e487b71000000000000000000000000000000000000000000000000000000005f52602260045260245ffd5b5f6002820490506001821680620000de57607f821691505b602082108103620000f457620000f362000099565b5b50919050565b5f819050815f5260205f209050919050565b5f6020601f8301049050919050565b5f82821b905092915050565b5f60088302620001587fffffffffffffffffffffffffffffffffffffffffffffffffffffffffffffffff826200011b565b6200016486836200011b565b95508019841693508086168417925050509392505050565b5f819050919050565b5f819050919050565b5f620001ae620001a8620001a2846200017c565b62000185565b6200017c565b9050919050565b5f819050919050565b620001c9836200018e565b620001e1620001d882620001b5565b84845462000127565b825550505050565b5f90565b620001f7620001e9565b62000204818484620001be565b505050565b5b818110156200022b576200021f5f82620001ed565b6001810190506200020a565b5050565b601f8211156200027a576200024481620000fa565b6200024f846200010c565b810160208510156200025f578190505b620002776200026e856200010c565b83018262000209565b50505b505050565b5f82821c905092915050565b5f6200029c5f19846008026200027f565b1980831691505092915050565b5f620002b683836200028b565b9150826002028217905092915050565b620002d18262000062565b67ffffffffffffffff811115620002ed57620002ec6200006c565b5b620002f98254620000c6565b620003068282856200022f565b5f60209050601f8311600181146200033c575f841562000327578287015190505b620003338582620002a9565b865550620003a2565b601f1984166200034c86620000fa565b5f5b8281101562000375578489015182556001820191506020850194506020810190506200034e565b8683101562000395578489015162000391601f8916826200028b565b8355505b6001600288020188555050505b505050505050565b6106cf80620003b85f395ff3fe608060405234801561000f575f80fd5b506004361061003f575f3560e01c8063492bfa18146100435780635488465114610061578063d4da005a14610091575b5f80fd5b61004b6100af565b60405161005891906102f0565b60405180910390f35b61007b60048036038101906100769190610347565b61013b565b60405161008891906102f0565b60405180910390f35b610099610261565b6040516100a6919061038a565b60405180910390f35b600180546100bc906103d0565b80601f01602080910402602001604051908101604052809291908181526020018280546100e8906103d0565b80156101335780601f1061010a57610100808354040283529160200191610133565b820191905f5260205f20905b81548152906001019060200180831161011657829003601f168201915b505050505081565b60606005821461018e576040518060400160405280600b81526020017f46616c73652056616c75650000000000000000000000000000000000000000008152506001908161018991906105ca565b6101d3565b6040518060400160405280600a81526020017f547275652056616c756500000000000000000000000000000000000000000000815250600190816101d291906105ca565b5b80546101de906103d0565b80601f016020809104026020016040519081016040528092919081815260200182805461020a906103d0565b80156102555780601f1061022c57610100808354040283529160200191610255565b820191905f5260205f20905b81548152906001019060200180831161023857829003601f168201915b50505050509050919050565b5f5481565b5f81519050919050565b5f82825260208201905092915050565b5f5b8381101561029d578082015181840152602081019050610282565b5f8484015250505050565b5f601f19601f8301169050919050565b5f6102c282610266565b6102cc8185610270565b93506102dc818560208601610280565b6102e5816102a8565b840191505092915050565b5f6020820190508181035f83015261030881846102b8565b905092915050565b5f80fd5b5f819050919050565b61032681610314565b8114610330575f80fd5b50565b5f813590506103418161031d565b92915050565b5f6020828403121561035c5761035b610310565b5b5f61036984828501610333565b91505092915050565b5f819050919050565b61038481610372565b82525050565b5f60208201905061039d5f83018461037b565b92915050565b7f4e487b71000000000000000000000000000000000000000000000000000000005f52602260045260245ffd5b5f60028204905060018216806103e757607f821691505b6020821081036103fa576103f96103a3565b5b50919050565b7f4e487b71000000000000000000000000000000000000000000000000000000005f52604160045260245ffd5b5f819050815f5260205f209050919050565b5f6020601f8301049050919050565b5f82821b905092915050565b5f600883026104897fffffffffffffffffffffffffffffffffffffffffffffffffffffffffffffffff8261044e565b610493868361044e565b95508019841693508086168417925050509392505050565b5f819050919050565b5f6104ce6104c96104c484610314565b6104ab565b610314565b9050919050565b5f819050919050565b6104e7836104b4565b6104fb6104f3826104d5565b84845461045a565b825550505050565b5f90565b61050f610503565b61051a8184846104de565b505050565b5b8181101561053d576105325f82610507565b600181019050610520565b5050565b601f821115610582576105538161042d565b61055c8461043f565b8101602085101561056b578190505b61057f6105778561043f565b83018261051f565b50505b505050565b5f82821c905092915050565b5f6105a25f1984600802610587565b1980831691505092915050565b5f6105ba8383610593565b9150826002028217905092915050565b6105d382610266565b67ffffffffffffffff8111156105ec576105eb610400565b5b6105f682546103d0565b610601828285610541565b5f60209050601f831160018114610632575f8415610620578287015190505b61062a85826105af565b865550610691565b601f1984166106408661042d565b5f5b8281101561066757848901518255600182019150602085019450602081019050610642565b868310156106845784890151610680601f891682610593565b8355505b6001600288020188555050505b50505050505056fea2646970667358221220a1a7f5dc9c621cc5a8892976cf13befd8fcfeb05defe728db6949679030968af64736f6c63430008180033",
					"opcodes": "PUSH1 0x80 PUSH1 0x40 MSTORE PUSH1 0x5 PUSH0 SSTORE PUSH1 0x40 MLOAD DUP1 PUSH1 0x40 ADD PUSH1 0x40 MSTORE DUP1 PUSH1 0x3 DUP2 MSTORE PUSH1 0x20 ADD PUSH32 0x4142430000000000000000000000000000000000000000000000000000000000 DUP2 MSTORE POP PUSH1 0x1 SWAP1 DUP2 PUSH3 0x4E SWAP2 SWAP1 PUSH3 0x2C6 JUMP JUMPDEST POP CALLVALUE DUP1 ISZERO PUSH3 0x5B JUMPI PUSH0 DUP1 REVERT JUMPDEST POP PUSH3 0x3AA JUMP JUMPDEST PUSH0 DUP2 MLOAD SWAP1 POP SWAP2 SWAP1 POP JUMP JUMPDEST PUSH32 0x4E487B7100000000000000000000000000000000000000000000000000000000 PUSH0 MSTORE PUSH1 0x41 PUSH1 0x4 MSTORE PUSH1 0x24 PUSH0 REVERT JUMPDEST PUSH32 0x4E487B7100000000000000000000000000000000000000000000000000000000 PUSH0 MSTORE PUSH1 0x22 PUSH1 0x4 MSTORE PUSH1 0x24 PUSH0 REVERT JUMPDEST PUSH0 PUSH1 0x2 DUP3 DIV SWAP1 POP PUSH1 0x1 DUP3 AND DUP1 PUSH3 0xDE JUMPI PUSH1 0x7F DUP3 AND SWAP2 POP JUMPDEST PUSH1 0x20 DUP3 LT DUP2 SUB PUSH3 0xF4 JUMPI PUSH3 0xF3 PUSH3 0x99 JUMP JUMPDEST JUMPDEST POP SWAP2 SWAP1 POP JUMP JUMPDEST PUSH0 DUP2 SWAP1 POP DUP2 PUSH0 MSTORE PUSH1 0x20 PUSH0 KECCAK256 SWAP1 POP SWAP2 SWAP1 POP JUMP JUMPDEST PUSH0 PUSH1 0x20 PUSH1 0x1F DUP4 ADD DIV SWAP1 POP SWAP2 SWAP1 POP JUMP JUMPDEST PUSH0 DUP3 DUP3 SHL SWAP1 POP SWAP3 SWAP2 POP POP JUMP JUMPDEST PUSH0 PUSH1 0x8 DUP4 MUL PUSH3 0x158 PUSH32 0xFFFFFFFFFFFFFFFFFFFFFFFFFFFFFFFFFFFFFFFFFFFFFFFFFFFFFFFFFFFFFFFF DUP3 PUSH3 0x11B JUMP JUMPDEST PUSH3 0x164 DUP7 DUP4 PUSH3 0x11B JUMP JUMPDEST SWAP6 POP DUP1 NOT DUP5 AND SWAP4 POP DUP1 DUP7 AND DUP5 OR SWAP3 POP POP POP SWAP4 SWAP3 POP POP POP JUMP JUMPDEST PUSH0 DUP2 SWAP1 POP SWAP2 SWAP1 POP JUMP JUMPDEST PUSH0 DUP2 SWAP1 POP SWAP2 SWAP1 POP JUMP JUMPDEST PUSH0 PUSH3 0x1AE PUSH3 0x1A8 PUSH3 0x1A2 DUP5 PUSH3 0x17C JUMP JUMPDEST PUSH3 0x185 JUMP JUMPDEST PUSH3 0x17C JUMP JUMPDEST SWAP1 POP SWAP2 SWAP1 POP JUMP JUMPDEST PUSH0 DUP2 SWAP1 POP SWAP2 SWAP1 POP JUMP JUMPDEST PUSH3 0x1C9 DUP4 PUSH3 0x18E JUMP JUMPDEST PUSH3 0x1E1 PUSH3 0x1D8 DUP3 PUSH3 0x1B5 JUMP JUMPDEST DUP5 DUP5 SLOAD PUSH3 0x127 JUMP JUMPDEST DUP3 SSTORE POP POP POP POP JUMP JUMPDEST PUSH0 SWAP1 JUMP JUMPDEST PUSH3 0x1F7 PUSH3 0x1E9 JUMP JUMPDEST PUSH3 0x204 DUP2 DUP5 DUP5 PUSH3 0x1BE JUMP JUMPDEST POP POP POP JUMP JUMPDEST JUMPDEST DUP2 DUP2 LT ISZERO PUSH3 0x22B JUMPI PUSH3 0x21F PUSH0 DUP3 PUSH3 0x1ED JUMP JUMPDEST PUSH1 0x1 DUP2 ADD SWAP1 POP PUSH3 0x20A JUMP JUMPDEST POP POP JUMP JUMPDEST PUSH1 0x1F DUP3 GT ISZERO PUSH3 0x27A JUMPI PUSH3 0x244 DUP2 PUSH3 0xFA JUMP JUMPDEST PUSH3 0x24F DUP5 PUSH3 0x10C JUMP JUMPDEST DUP2 ADD PUSH1 0x20 DUP6 LT ISZERO PUSH3 0x25F JUMPI DUP2 SWAP1 POP JUMPDEST PUSH3 0x277 PUSH3 0x26E DUP6 PUSH3 0x10C JUMP JUMPDEST DUP4 ADD DUP3 PUSH3 0x209 JUMP JUMPDEST POP POP JUMPDEST POP POP POP JUMP JUMPDEST PUSH0 DUP3 DUP3 SHR SWAP1 POP SWAP3 SWAP2 POP POP JUMP JUMPDEST PUSH0 PUSH3 0x29C PUSH0 NOT DUP5 PUSH1 0x8 MUL PUSH3 0x27F JUMP JUMPDEST NOT DUP1 DUP4 AND SWAP2 POP POP SWAP3 SWAP2 POP POP JUMP JUMPDEST PUSH0 PUSH3 0x2B6 DUP4 DUP4 PUSH3 0x28B JUMP JUMPDEST SWAP2 POP DUP3 PUSH1 0x2 MUL DUP3 OR SWAP1 POP SWAP3 SWAP2 POP POP JUMP JUMPDEST PUSH3 0x2D1 DUP3 PUSH3 0x62 JUMP JUMPDEST PUSH8 0xFFFFFFFFFFFFFFFF DUP2 GT ISZERO PUSH3 0x2ED JUMPI PUSH3 0x2EC PUSH3 0x6C JUMP JUMPDEST JUMPDEST PUSH3 0x2F9 DUP3 SLOAD PUSH3 0xC6 JUMP JUMPDEST PUSH3 0x306 DUP3 DUP3 DUP6 PUSH3 0x22F JUMP JUMPDEST PUSH0 PUSH1 0x20 SWAP1 POP PUSH1 0x1F DUP4 GT PUSH1 0x1 DUP2 EQ PUSH3 0x33C JUMPI PUSH0 DUP5 ISZERO PUSH3 0x327 JUMPI DUP3 DUP8 ADD MLOAD SWAP1 POP JUMPDEST PUSH3 0x333 DUP6 DUP3 PUSH3 0x2A9 JUMP JUMPDEST DUP7 SSTORE POP PUSH3 0x3A2 JUMP JUMPDEST PUSH1 0x1F NOT DUP5 AND PUSH3 0x34C DUP7 PUSH3 0xFA JUMP JUMPDEST PUSH0 JUMPDEST DUP3 DUP2 LT ISZERO PUSH3 0x375 JUMPI DUP5 DUP10 ADD MLOAD DUP3 SSTORE PUSH1 0x1 DUP3 ADD SWAP2 POP PUSH1 0x20 DUP6 ADD SWAP5 POP PUSH1 0x20 DUP2 ADD SWAP1 POP PUSH3 0x34E JUMP JUMPDEST DUP7 DUP4 LT ISZERO PUSH3 0x395 JUMPI DUP5 DUP10 ADD MLOAD PUSH3 0x391 PUSH1 0x1F DUP10 AND DUP3 PUSH3 0x28B JUMP JUMPDEST DUP4 SSTORE POP JUMPDEST PUSH1 0x1 PUSH1 0x2 DUP9 MUL ADD DUP9 SSTORE POP POP POP JUMPDEST POP POP POP POP POP POP JUMP JUMPDEST PUSH2 0x6CF DUP1 PUSH3 0x3B8 PUSH0 CODECOPY PUSH0 RETURN INVALID PUSH1 0x80 PUSH1 0x40 MSTORE CALLVALUE DUP1 ISZERO PUSH2 0xF JUMPI PUSH0 DUP1 REVERT JUMPDEST POP PUSH1 0x4 CALLDATASIZE LT PUSH2 0x3F JUMPI PUSH0 CALLDATALOAD PUSH1 0xE0 SHR DUP1 PUSH4 0x492BFA18 EQ PUSH2 0x43 JUMPI DUP1 PUSH4 0x54884651 EQ PUSH2 0x61 JUMPI DUP1 PUSH4 0xD4DA005A EQ PUSH2 0x91 JUMPI JUMPDEST PUSH0 DUP1 REVERT JUMPDEST PUSH2 0x4B PUSH2 0xAF JUMP JUMPDEST PUSH1 0x40 MLOAD PUSH2 0x58 SWAP2 SWAP1 PUSH2 0x2F0 JUMP JUMPDEST PUSH1 0x40 MLOAD DUP1 SWAP2 SUB SWAP1 RETURN JUMPDEST PUSH2 0x7B PUSH1 0x4 DUP1 CALLDATASIZE SUB DUP2 ADD SWAP1 PUSH2 0x76 SWAP2 SWAP1 PUSH2 0x347 JUMP JUMPDEST PUSH2 0x13B JUMP JUMPDEST PUSH1 0x40 MLOAD PUSH2 0x88 SWAP2 SWAP1 PUSH2 0x2F0 JUMP JUMPDEST PUSH1 0x40 MLOAD DUP1 SWAP2 SUB SWAP1 RETURN JUMPDEST PUSH2 0x99 PUSH2 0x261 JUMP JUMPDEST PUSH1 0x40 MLOAD PUSH2 0xA6 SWAP2 SWAP1 PUSH2 0x38A JUMP JUMPDEST PUSH1 0x40 MLOAD DUP1 SWAP2 SUB SWAP1 RETURN JUMPDEST PUSH1 0x1 DUP1 SLOAD PUSH2 0xBC SWAP1 PUSH2 0x3D0 JUMP JUMPDEST DUP1 PUSH1 0x1F ADD PUSH1 0x20 DUP1 SWAP2 DIV MUL PUSH1 0x20 ADD PUSH1 0x40 MLOAD SWAP1 DUP2 ADD PUSH1 0x40 MSTORE DUP1 SWAP3 SWAP2 SWAP1 DUP2 DUP2 MSTORE PUSH1 0x20 ADD DUP3 DUP1 SLOAD PUSH2 0xE8 SWAP1 PUSH2 0x3D0 JUMP JUMPDEST DUP1 ISZERO PUSH2 0x133 JUMPI DUP1 PUSH1 0x1F LT PUSH2 0x10A JUMPI PUSH2 0x100 DUP1 DUP4 SLOAD DIV MUL DUP4 MSTORE SWAP2 PUSH1 0x20 ADD SWAP2 PUSH2 0x133 JUMP JUMPDEST DUP3 ADD SWAP2 SWAP1 PUSH0 MSTORE PUSH1 0x20 PUSH0 KECCAK256 SWAP1 JUMPDEST DUP2 SLOAD DUP2 MSTORE SWAP1 PUSH1 0x1 ADD SWAP1 PUSH1 0x20 ADD DUP1 DUP4 GT PUSH2 0x116 JUMPI DUP3 SWAP1 SUB PUSH1 0x1F AND DUP3 ADD SWAP2 JUMPDEST POP POP POP POP POP DUP2 JUMP JUMPDEST PUSH1 0x60 PUSH1 0x5 DUP3 EQ PUSH2 0x18E JUMPI PUSH1 0x40 MLOAD DUP1 PUSH1 0x40 ADD PUSH1 0x40 MSTORE DUP1 PUSH1 0xB DUP2 MSTORE PUSH1 0x20 ADD PUSH32 0x46616C73652056616C7565000000000000000000000000000000000000000000 DUP2 MSTORE POP PUSH1 0x1 SWAP1 DUP2 PUSH2 0x189 SWAP2 SWAP1 PUSH2 0x5CA JUMP JUMPDEST PUSH2 0x1D3 JUMP JUMPDEST PUSH1 0x40 MLOAD DUP1 PUSH1 0x40 ADD PUSH1 0x40 MSTORE DUP1 PUSH1 0xA DUP2 MSTORE PUSH1 0x20 ADD PUSH32 0x547275652056616C756500000000000000000000000000000000000000000000 DUP2 MSTORE POP PUSH1 0x1 SWAP1 DUP2 PUSH2 0x1D2 SWAP2 SWAP1 PUSH2 0x5CA JUMP JUMPDEST JUMPDEST DUP1 SLOAD PUSH2 0x1DE SWAP1 PUSH2 0x3D0 JUMP JUMPDEST DUP1 PUSH1 0x1F ADD PUSH1 0x20 DUP1 SWAP2 DIV MUL PUSH1 0x20 ADD PUSH1 0x40 MLOAD SWAP1 DUP2 ADD PUSH1 0x40 MSTORE DUP1 SWAP3 SWAP2 SWAP1 DUP2 DUP2 MSTORE PUSH1 0x20 ADD DUP3 DUP1 SLOAD PUSH2 0x20A SWAP1 PUSH2 0x3D0 JUMP JUMPDEST DUP1 ISZERO PUSH2 0x255 JUMPI DUP1 PUSH1 0x1F LT PUSH2 0x22C JUMPI PUSH2 0x100 DUP1 DUP4 SLOAD DIV MUL DUP4 MSTORE SWAP2 PUSH1 0x20 ADD SWAP2 PUSH2 0x255 JUMP JUMPDEST DUP3 ADD SWAP2 SWAP1 PUSH0 MSTORE PUSH1 0x20 PUSH0 KECCAK256 SWAP1 JUMPDEST DUP2 SLOAD DUP2 MSTORE SWAP1 PUSH1 0x1 ADD SWAP1 PUSH1 0x20 ADD DUP1 DUP4 GT PUSH2 0x238 JUMPI DUP3 SWAP1 SUB PUSH1 0x1F AND DUP3 ADD SWAP2 JUMPDEST POP POP POP POP POP SWAP1 POP SWAP2 SWAP1 POP JUMP JUMPDEST PUSH0 SLOAD DUP2 JUMP JUMPDEST PUSH0 DUP2 MLOAD SWAP1 POP SWAP2 SWAP1 POP JUMP JUMPDEST PUSH0 DUP3 DUP3 MSTORE PUSH1 0x20 DUP3 ADD SWAP1 POP SWAP3 SWAP2 POP POP JUMP JUMPDEST PUSH0 JUMPDEST DUP4 DUP2 LT ISZERO PUSH2 0x29D JUMPI DUP1 DUP3 ADD MLOAD DUP2 DUP5 ADD MSTORE PUSH1 0x20 DUP2 ADD SWAP1 POP PUSH2 0x282 JUMP JUMPDEST PUSH0 DUP5 DUP5 ADD MSTORE POP POP POP POP JUMP JUMPDEST PUSH0 PUSH1 0x1F NOT PUSH1 0x1F DUP4 ADD AND SWAP1 POP SWAP2 SWAP1 POP JUMP JUMPDEST PUSH0 PUSH2 0x2C2 DUP3 PUSH2 0x266 JUMP JUMPDEST PUSH2 0x2CC DUP2 DUP6 PUSH2 0x270 JUMP JUMPDEST SWAP4 POP PUSH2 0x2DC DUP2 DUP6 PUSH1 0x20 DUP7 ADD PUSH2 0x280 JUMP JUMPDEST PUSH2 0x2E5 DUP2 PUSH2 0x2A8 JUMP JUMPDEST DUP5 ADD SWAP2 POP POP SWAP3 SWAP2 POP POP JUMP JUMPDEST PUSH0 PUSH1 0x20 DUP3 ADD SWAP1 POP DUP2 DUP2 SUB PUSH0 DUP4 ADD MSTORE PUSH2 0x308 DUP2 DUP5 PUSH2 0x2B8 JUMP JUMPDEST SWAP1 POP SWAP3 SWAP2 POP POP JUMP JUMPDEST PUSH0 DUP1 REVERT JUMPDEST PUSH0 DUP2 SWAP1 POP SWAP2 SWAP1 POP JUMP JUMPDEST PUSH2 0x326 DUP2 PUSH2 0x314 JUMP JUMPDEST DUP2 EQ PUSH2 0x330 JUMPI PUSH0 DUP1 REVERT JUMPDEST POP JUMP JUMPDEST PUSH0 DUP2 CALLDATALOAD SWAP1 POP PUSH2 0x341 DUP2 PUSH2 0x31D JUMP JUMPDEST SWAP3 SWAP2 POP POP JUMP JUMPDEST PUSH0 PUSH1 0x20 DUP3 DUP5 SUB SLT ISZERO PUSH2 0x35C JUMPI PUSH2 0x35B PUSH2 0x310 JUMP JUMPDEST JUMPDEST PUSH0 PUSH2 0x369 DUP5 DUP3 DUP6 ADD PUSH2 0x333 JUMP JUMPDEST SWAP2 POP POP SWAP3 SWAP2 POP POP JUMP JUMPDEST PUSH0 DUP2 SWAP1 POP SWAP2 SWAP1 POP JUMP JUMPDEST PUSH2 0x384 DUP2 PUSH2 0x372 JUMP JUMPDEST DUP3 MSTORE POP POP JUMP JUMPDEST PUSH0 PUSH1 0x20 DUP3 ADD SWAP1 POP PUSH2 0x39D PUSH0 DUP4 ADD DUP5 PUSH2 0x37B JUMP JUMPDEST SWAP3 SWAP2 POP POP JUMP JUMPDEST PUSH32 0x4E487B7100000000000000000000000000000000000000000000000000000000 PUSH0 MSTORE PUSH1 0x22 PUSH1 0x4 MSTORE PUSH1 0x24 PUSH0 REVERT JUMPDEST PUSH0 PUSH1 0x2 DUP3 DIV SWAP1 POP PUSH1 0x1 DUP3 AND DUP1 PUSH2 0x3E7 JUMPI PUSH1 0x7F DUP3 AND SWAP2 POP JUMPDEST PUSH1 0x20 DUP3 LT DUP2 SUB PUSH2 0x3FA JUMPI PUSH2 0x3F9 PUSH2 0x3A3 JUMP JUMPDEST JUMPDEST POP SWAP2 SWAP1 POP JUMP JUMPDEST PUSH32 0x4E487B7100000000000000000000000000000000000000000000000000000000 PUSH0 MSTORE PUSH1 0x41 PUSH1 0x4 MSTORE PUSH1 0x24 PUSH0 REVERT JUMPDEST PUSH0 DUP2 SWAP1 POP DUP2 PUSH0 MSTORE PUSH1 0x20 PUSH0 KECCAK256 SWAP1 POP SWAP2 SWAP1 POP JUMP JUMPDEST PUSH0 PUSH1 0x20 PUSH1 0x1F DUP4 ADD DIV SWAP1 POP SWAP2 SWAP1 POP JUMP JUMPDEST PUSH0 DUP3 DUP3 SHL SWAP1 POP SWAP3 SWAP2 POP POP JUMP JUMPDEST PUSH0 PUSH1 0x8 DUP4 MUL PUSH2 0x489 PUSH32 0xFFFFFFFFFFFFFFFFFFFFFFFFFFFFFFFFFFFFFFFFFFFFFFFFFFFFFFFFFFFFFFFF DUP3 PUSH2 0x44E JUMP JUMPDEST PUSH2 0x493 DUP7 DUP4 PUSH2 0x44E JUMP JUMPDEST SWAP6 POP DUP1 NOT DUP5 AND SWAP4 POP DUP1 DUP7 AND DUP5 OR SWAP3 POP POP POP SWAP4 SWAP3 POP POP POP JUMP JUMPDEST PUSH0 DUP2 SWAP1 POP SWAP2 SWAP1 POP JUMP JUMPDEST PUSH0 PUSH2 0x4CE PUSH2 0x4C9 PUSH2 0x4C4 DUP5 PUSH2 0x314 JUMP JUMPDEST PUSH2 0x4AB JUMP JUMPDEST PUSH2 0x314 JUMP JUMPDEST SWAP1 POP SWAP2 SWAP1 POP JUMP JUMPDEST PUSH0 DUP2 SWAP1 POP SWAP2 SWAP1 POP JUMP JUMPDEST PUSH2 0x4E7 DUP4 PUSH2 0x4B4 JUMP JUMPDEST PUSH2 0x4FB PUSH2 0x4F3 DUP3 PUSH2 0x4D5 JUMP JUMPDEST DUP5 DUP5 SLOAD PUSH2 0x45A JUMP JUMPDEST DUP3 SSTORE POP POP POP POP JUMP JUMPDEST PUSH0 SWAP1 JUMP JUMPDEST PUSH2 0x50F PUSH2 0x503 JUMP JUMPDEST PUSH2 0x51A DUP2 DUP5 DUP5 PUSH2 0x4DE JUMP JUMPDEST POP POP POP JUMP JUMPDEST JUMPDEST DUP2 DUP2 LT ISZERO PUSH2 0x53D JUMPI PUSH2 0x532 PUSH0 DUP3 PUSH2 0x507 JUMP JUMPDEST PUSH1 0x1 DUP2 ADD SWAP1 POP PUSH2 0x520 JUMP JUMPDEST POP POP JUMP JUMPDEST PUSH1 0x1F DUP3 GT ISZERO PUSH2 0x582 JUMPI PUSH2 0x553 DUP2 PUSH2 0x42D JUMP JUMPDEST PUSH2 0x55C DUP5 PUSH2 0x43F JUMP JUMPDEST DUP2 ADD PUSH1 0x20 DUP6 LT ISZERO PUSH2 0x56B JUMPI DUP2 SWAP1 POP JUMPDEST PUSH2 0x57F PUSH2 0x577 DUP6 PUSH2 0x43F JUMP JUMPDEST DUP4 ADD DUP3 PUSH2 0x51F JUMP JUMPDEST POP POP JUMPDEST POP POP POP JUMP JUMPDEST PUSH0 DUP3 DUP3 SHR SWAP1 POP SWAP3 SWAP2 POP POP JUMP JUMPDEST PUSH0 PUSH2 0x5A2 PUSH0 NOT DUP5 PUSH1 0x8 MUL PUSH2 0x587 JUMP JUMPDEST NOT DUP1 DUP4 AND SWAP2 POP POP SWAP3 SWAP2 POP POP JUMP JUMPDEST PUSH0 PUSH2 0x5BA DUP4 DUP4 PUSH2 0x593 JUMP JUMPDEST SWAP2 POP DUP3 PUSH1 0x2 MUL DUP3 OR SWAP1 POP SWAP3 SWAP2 POP POP JUMP JUMPDEST PUSH2 0x5D3 DUP3 PUSH2 0x266 JUMP JUMPDEST PUSH8 0xFFFFFFFFFFFFFFFF DUP2 GT ISZERO PUSH2 0x5EC JUMPI PUSH2 0x5EB PUSH2 0x400 JUMP JUMPDEST JUMPDEST PUSH2 0x5F6 DUP3 SLOAD PUSH2 0x3D0 JUMP JUMPDEST PUSH2 0x601 DUP3 DUP3 DUP6 PUSH2 0x541 JUMP JUMPDEST PUSH0 PUSH1 0x20 SWAP1 POP PUSH1 0x1F DUP4 GT PUSH1 0x1 DUP2 EQ PUSH2 0x632 JUMPI PUSH0 DUP5 ISZERO PUSH2 0x620 JUMPI DUP3 DUP8 ADD MLOAD SWAP1 POP JUMPDEST PUSH2 0x62A DUP6 DUP3 PUSH2 0x5AF JUMP JUMPDEST DUP7 SSTORE POP PUSH2 0x691 JUMP JUMPDEST PUSH1 0x1F NOT DUP5 AND PUSH2 0x640 DUP7 PUSH2 0x42D JUMP JUMPDEST PUSH0 JUMPDEST DUP3 DUP2 LT ISZERO PUSH2 0x667 JUMPI DUP5 DUP10 ADD MLOAD DUP3 SSTORE PUSH1 0x1 DUP3 ADD SWAP2 POP PUSH1 0x20 DUP6 ADD SWAP5 POP PUSH1 0x20 DUP2 ADD SWAP1 POP PUSH2 0x642 JUMP JUMPDEST DUP7 DUP4 LT ISZERO PUSH2 0x684 JUMPI DUP5 DUP10 ADD MLOAD PUSH2 0x680 PUSH1 0x1F DUP10 AND DUP3 PUSH2 0x593 JUMP JUMPDEST DUP4 SSTORE POP JUMPDEST PUSH1 0x1 PUSH1 0x2 DUP9 MUL ADD DUP9 SSTORE POP POP POP JUMPDEST POP POP POP POP POP POP JUMP INVALID LOG2 PUSH5 0x6970667358 0x22 SLT KECCAK256 LOG1 0xA7 CREATE2 0xDC SWAP13 PUSH3 0x1CC5A8 DUP10 0x29 PUSH23 0xCF13BEFD8FCFEB05DEFE728DB6949679030968AF64736F PUSH13 0x63430008180033000000000000 "
				},
				"gasEstimates": {
					"creation": {
						"codeDepositCost": "348600",
						"executionCost": "infinite",
						"totalCost": "infinite"
					},
					"external": {
						"myNum()": "2446",
						"myString()": "infinite",
						"shorthand(uint256)": "infinite"
					}
				},
				"methodIdentifiers": {
					"myNum()": "d4da005a",
					"myString()": "492bfa18",
					"shorthand(uint256)": "54884651"
				}
			},
			"storageLayout": {
				"storage": [
					{
						"astId": 4,
						"contract": "If_else.sol:Conditional",
						"label": "myNum",
						"offset": 0,
						"slot": "0",
						"type": "t_int256"
					},
					{
						"astId": 7,
						"contract": "If_else.sol:Conditional",
						"label": "myString",
						"offset": 0,
						"slot": "1",
						"type": "t_string_storage"
					}
				],
				"types": {
					"t_int256": {
						"encoding": "inplace",
						"label": "int256",
						"numberOfBytes": "32"
					},
					"t_string_storage": {
						"encoding": "bytes",
						"label": "string",
						"numberOfBytes": "32"
					}
				}
			},
			"userdoc": {
				"kind": "user",
				"methods": {},
				"version": 1
			}
		}
	}
}